:020000040800F2
:10000000F806002091010008250D00087F0C00086B
:10001000210D0008B70600082314000800000000A6
:10002000000000000000000000000000FD0E0008BD
:10003000BB06000800000000AD0D0008111000080C
:10004000A7010008A7010008A7010008A7010008F0
:10005000A7010008A7010008A7010008A7010008E0
:10006000A7010008A7010008A7010008A7010008D0
:10007000A7010008A7010008A7010008A7010008C0
:10008000A7010008A7010008A7010008A7010008B0
:10009000A7010008A7010008A701000895090008AA
:1000A000A7010008A7010008A7010008A701000890
:1000B000A701000875100008A7010008A7010008A3
:1000C000A7010008A7010008A7010008A701000870
:1000D000A70100080D120008A7010008A7010008E9
:1000E000BD070008A7010008A701000800F002F8FA
:1000F00000F03FF80AA090E8000C82448344AAF183
:100100000107DA4501D100F034F8AFF2090EBAE880
:100110000F0013F0010F18BFFB1A43F0010318473B
:100120005019000070190000103A24BF78C878C137
:10013000FAD8520724BF30C830C144BF04680C60ED
:10014000704700000023002400250026103A28BF35
:1001500078C1FBD8520728BF30C148BF0B60704739
:10016000642900F07380002070471FB51FBD10B5D3
:1001700010BD00F033F91146FFF7F7FF01F022FA46
:1001800000F051F903B4FFF7F2FF03BC01F04BF9A3
:1001900008480047FEE7FEE7FEE7FEE7FEE7FEE76A
:1001A000FEE7FEE7FEE7FEE703480449044A054B85
:1001B00070470000ED000008F8000020F80600205D
:1001C000F8020020F8020020704700000FB4044934
:1001D00010B503AA029800F0D3F810BC5DF814FB28
:1001E000180000202DE9F0410E4604460020206250
:1001F0002046E168884730B3252805D0D4E901219D
:100200009047206A401CF2E7E168204600278847B3
:10021000050018D0A5F14100192802D820354FF467
:1002200000673246294620462760FFF799FF40B114
:10023000012804D0F61D26F007060836D8E7361D3B
:10024000D6E72846DAE7206ABDE8F0812DE9F041DB
:100250000646002410687529314616A510D0AFF364
:100260000080002802DA404213A507E031688A07BF
:1002700001D512A502E0490704D511A5012401E02A
:10028000AFF3008000210A2206F1240709E0B0FB49
:10029000F2FCB0FBF2F302FB1C003030785418463D
:1002A000491C0028F3D123462A463046BDE8F041D8
:1002B00000F00CB8000000002D0000002B00000032
:1002C0002000000070477047704770472DE9F047E5
:1002D0000D4699469246044600F1240801688806B6
:1002E00004D5E06921F01001216000E00120A8425E
:1002F00001DD471B00E00027A1697A1902EB090024
:10030000081AA0612078C00602D42046AFF300800E
:10031000002608E0D4E901211AF806009047206A77
:10032000401C761C20624E45F4DB2078C0060AD5BE
:100330002046AFF3008006E0D4E901213020904749
:10034000206A401C2062381EA7F10107F4DC07E098
:10035000D4E9012118F805009047206A401C20626A
:10036000281EA5F10105F3DC2046AFF300802078BC
:10037000000602D50220BDE8F0870120FBE700005F
:10038000074B70B50D467B4400F011F80446284633
:1003900000F020F810B14FF0FF3070BD204670BD66
:1003A000BB11000001694A1C02610878704700B562
:1003B0008FB0CDE901310021059105497944CDE99E
:1003C000031011466846FFF70DFF0FB000BD000097
:1003D000E5FFFFFF007B00F080007047754600F0EE
:1003E00029F8AE4605006946534620F007008546C9
:1003F00018B020B5FFF7D8FEBDE820404FF000064A
:100400004FF000074FF000084FF0000B21F00701FC
:10041000AC46ACE8C009ACE8C009ACE8C009ACE83F
:10042000C0098D4670470446AFF300802046FFF7B1
:10043000A9FE0000004870479400002000B587B076
:1004400001214FF4027000F0CFFC4FF4004000F0A7
:10045000AFFC0320ADF8180000208DF81B0006A9A2
:10046000184800F07DFB184800F03CF800208DF89B
:10047000090004904FF460200390002001900120B7
:100480008DF8140000208DF8080001A90E4800F036
:1004900079F801210C4800F019F80B4800F0F6F843
:1004A00000BF094800F063F80028FAD1064800F0C0
:1004B000FDF800BF044800F043F80028FAD107B067
:1004C00000BD0000000C01400024014021B1826801
:1004D00042F00102826003E0826822F00102826041
:1004E0007047000010B504461248844208D101212B
:1004F000401500F089FC0021601500F085FC17E034
:100500000D48844208D10121001500F07DFC002136
:10051000201500F079FC0BE00848844208D1012145
:10052000C80300F071FC00214FF4004000F06CFCA7
:1005300010BD00000024014000280140003C0140A3
:10054000014600208A6802F004020AB1012000E09E
:10055000002070470146C86C80B2704702460020F8
:1005600013680B400BB1012000E0002070470146EA
:1005700000208A6802F008020AB1012000E0002091
:100580007047000030B502460020002350680F4C31
:1005900020400D790C6844EA05242043506090689F
:1005A0000B4C2040D1E902542C434D7944EA4504D8
:1005B00020439060D06A20F470000C7C641EE4B28A
:1005C000234340EA0350D06230BD0000FFFEF0FF3D
:1005D000FDF7F1FFF0B504460D4600200021092D7E
:1005E00011DDE068A5F10A0606EB4607072606FAC4
:1005F00007F18843A5F10A0606EB460603FA06F161
:100600000843E0600CE0206905EB4507072606FA81
:1006100007F1884305EB450603FA06F1084320611C
:10062000072A0FDA606B561E06EB86071F2606FAAE
:1006300007F18843561E06EB860605FA06F10843C5
:10064000606322E00D2A0FDA206BD61F06EB8607C7
:100650001F2606FA07F18843D61F06EB860605FA21
:1006600006F10843206310E0E06AA2F10D0606EBF4
:1006700086071F2606FA07F18843A2F10D0606EB4E
:10068000860605FA06F10843E062F0BD816841F094
:1006900008018160704721B1826842F4A002826043
:1006A00003E0826822F4A00282607047816841F012
:1006B00004018160704700BFFEE770470EB500F08F
:1006C000E1FA0121084600F08FFB0621002000F02E
:1006D00027FA4020019001208DF80A000C208DF8A7
:1006E000090000208DF8080001A800F0CFF90721CB
:1006F000002000F015FA8020019001208DF80A00FA
:100700000C208DF8090000208DF8080001A800F0E9
:10071000BDF90D21012000F003FA01208DF80A0037
:10072000400301900C208DF8090000208DF808008E
:1007300001A800F0ABF90E21012000F0F1F9012031
:100740008DF80A00800301900C208DF8090000202C
:100750008DF8080001A800F099F90F21012000F0A0
:10076000DFF901208DF80A00C00301900C208DF8FC
:10077000090000208DF8080001A800F087F9172073
:100780008DF8000001208DF8030000208DF8010095
:1007900002208DF80200684600F0C6FA28208DF885
:1007A000000000208DF8010001208DF8020068464D
:1007B00000F0BAFA00F0BCFE0EBD000010B5142027
:1007C00000F06AFE44480068002828D14348407879
:1007D000F0B942480078D8B90221012000F07CFF2E
:1007E0000221012001F060F801203C4908704870A6
:1007F0003B4900F01BFE3BA0FFF7E8FC3C480088AB
:1008000081003CA0FFF7E2FC00203949088006E0A7
:100810003349032000F00AFE39A0FFF7D7FC2E4829
:10082000001D006800282BD12C484078012820D1D9
:100830002A48007801281CD10221002001F034F858
:100840000221002000F048FF002024490870487071
:100850002349022000F0EAFD33A0FFF7B7FC24484B
:100860000088810023A0FFF7B1FC00202049088008
:1008700006E01B49042000F0D9FD2EA0FFF7A6FCDE
:10088000154808300068D0B9052001F07FF81348FA
:10089000807850B90120114988701149052000F075
:1008A000C5FD2EA0FFF792FC09E000200B498870DF
:1008B0000B49062000F0BAFD2FA0FFF787FC4FF48C
:1008C000005000F0DDF84FF4804000F0D9F84FF40C
:1008D000004000F0D5F810BD3481214232000020E4
:1008E0007A000020D2C2BCDCC9ECB3F60D0A0000CD
:1008F00038000020B2BDCAFDA3BA25640D0A00006D
:10090000B6D4B2BBC6F0A3ACC4FAB5C4D2C2BCDC88
:10091000B5B1C7B0D2D1B4A6D3DAC9ECB3F6D7B467
:10092000CCAC0D0A00000000D2C2BCDCCBF5BBD8B9
:100930000D0A0000B6D4B2BBC6F0A3ACC4FAB5C46D
:10094000D2C2BCDCB5B1C7B0D2D1B4A6D3DACBF534
:10095000BBD8D7B4CCAC0D0A00000000B4ABB8D003
:10096000C6F7BCECB2E2D7D4B6AFC4A3CABDBFAA27
:10097000C6F40D0A00000000B4ABB8D0C6F7BCEC5A
:10098000B2E2CAD6B6AFC4A3CABDBFAAC6F40D0AA6
:100990000000000010B50A2000F07EFD2E4800681F
:1009A00038BB2E488078012823D12C484078012874
:1009B0001FD12A48007801281BD10221002000F015
:1009C00073FF0221002000F087FE002023490870F9
:1009D00048702349022000F029FD22A0FFF7F6FB12
:1009E00023480088810023A0FFF7F0FB0020204966
:1009F00008801948001D006830BB1848807818B37B
:100A00001648407801281FD11448007801281BD1CE
:100A10000221002000F048FF0221002000F05CFECF
:100A200000200E49087048700D49022000F0FEFCBD
:100A30000CA0FFF7CBFB0E48008881000DA0FFF74C
:100A4000C5FB00200A490880402000F019F88020EA
:100A500000F016F810BD00001801214232000020FD
:100A60007A000020D2C2BCDCCBF5BBD80D0A000056
:100A700038000020B2BDCAFDA3BA25640D0A0000EB
:100A80000149086070470000140401400021234917
:100A90008279002A3AD00A46126803689A430B46C4
:100AA0001A600A1D126803689A430B1D1A600279C6
:100AB00011440A6803681A430A60184A0832126827
:100AC00003689A43154B08331A601A1D12680368AD
:100AD0009A43124B0C331A604279102A0ED11A1F16
:100AE000126803681A430D4B08331A601A1D126806
:100AF00003681A43094B0C331A600DE00749427929
:100B000011440A6803681A430A6005E00279114437
:100B10000A6803689A430A607047000000040140B5
:100B200030B500228B071C0F0F2303FA04F20B4B86
:100B30008C1053F824309343084C8D1044F8253022
:100B400023468C1053F824308C07240F00FA04F449
:100B50002343024C8D1044F8253030BD080001407D
:100B60002DE9F04102460025002600200023002444
:100B7000002791F803C00CF00F0591F803C00CF0AA
:100B8000100CBCF1000F03D091F802C04CEA05052F
:100B900091F800C0BCF1000F31D0146800202BE0A8
:100BA0004FF0010C0CFA00F3B1F800C00CEA030698
:100BB0009E4220D183004FF00F0C0CFA03F7BC4388
:100BC00005FA03FC4CEA040491F803C0BCF1280FB9
:100BD00006D14FF0010C0CFA00FCC2F814C00AE078
:100BE00091F803C0BCF1480F05D14FF0010C0CFA8D
:100BF00000FCC2F810C0401C0828D1D31460B1F822
:100C000000C0BCF1FF0F34DD546800202EE000F17D
:100C1000080C4FF0010808FA0CF3B1F800C00CEA18
:100C200003069E4221D183004FF00F0C0CFA03F70C
:100C3000BC4305FA03FC4CEA040491F803C0BCF180
:100C4000280F05D100F1080C08FA0CF8C2F814803E
:100C500091F803C0BCF1480F07D100F1080C4FF028
:100C6000010808FA0CF8C2F81080401C0828CED3FE
:100C70005460BDE8F081416170470161704700BF79
:100C8000FEE7000008B501210C2000F0ADF84FF49C
:100C90008050ADF8000010208DF8030003208DF87F
:100CA000020069460E48FFF75BFF4FF480510C4885
:100CB000FFF7E1FF4FF46040ADF8000048208DF8E9
:100CC000030069460648FFF74BFFC020ADF800005F
:100CD00048208DF8030069460248FFF741FF08BD30
:100CE000000C01400008014008B50121142000F06B
:100CF0007BF84FF40050ADF8000010208DF8030091
:100D000003208DF8020069460448FFF729FF4FF4DD
:100D100000510248FFF7B1FF08BD0000001001407C
:100D200000BFFEE77047000070B5002100230F22CE
:100D3000C47804B3154C246804F4E064C4F5E0649A
:100D4000210AC1F10403CA40447804FA03F184780B
:100D50001440214309010E4C0678A155047804F093
:100D60001F050124AC4005786D11AD0005F1E025AB
:100D7000C5F8004109E0047804F01F050124AC40E7
:100D8000044D0678761145F8264070BD0CED00E064
:100D900000E400E080E100E002490143024A116002
:100DA000704700000000FA050CED00E070470000FD
:100DB00001460020034A506820F440400843506038
:100DC000704700000010024029B1064AD269024370
:100DD000044BDA6104E0034AD2698243014BDA61D1
:100DE000704700000010024029B1064A9269024390
:100DF000044B9A6104E0034A92698243014B9A6171
:100E0000704700000010024029B1064AD268024330
:100E1000044BDA6004E0034AD2688243014BDA6093
:100E2000704700000010024030B50021002200246D
:100E300000232D4D6D6805F00C0121B1042905D06A
:100E4000082923D105E0294D056022E0274D0560E2
:100E50001FE0254D6D6805F47012234D6D6805F493
:100E60008034022505EB92421CB9214D55430560A3
:100E70000BE01D4D6D6805F400351DB11C4D55434B
:100E8000056002E0194D5543056002E0174D05600D
:100E900000BF00BF144D6D6805F0F0010909154D44
:100EA0006B5C0568DD4045600F4D6D6805F4E061E1
:100EB000090A104D6B5C4568DD4085600A4D6D6820
:100EC00005F46051C90A0B4D6B5C4568DD40C56097
:100ED000054D6D6805F44041890B074D6B5CC56895
:100EE000B5FBF3F5056130BD0010024000127A0039
:100EF00000093D001C0000202C000020704710B5A8
:100F000000F002F810BD00000CB500200190009028
:100F10003348006840F480303149086000BF3048F1
:100F2000006800F4003000900198401C0190009887
:100F300018B90198B0F5A06FF1D12948006800F404
:100F4000003010B10120009001E0002000900098D6
:100F5000012843D12348006840F01000214908606F
:100F60000846006820F0030008600846006840F06A
:100F7000020008601A4840681949486008464068FD
:100F800048600846406840F4806048600846406811
:100F900020F47C1048600846406840F4E81048603F
:100FA0000846006840F08070086000BF0C48006888
:100FB00000F000700028F9D00948406820F00300D4
:100FC000074948600846406840F00200486000BF9A
:100FD0000348406800F00C000828F9D10CBD00005F
:100FE0000010024000200240042808D14FF0E02108
:100FF000096941F004014FF0E022116107E04FF070
:10100000E021096921F004014FF0E02211617047ED
:101010007047000010B51348006840F00100114906
:10102000086008464068104908400E494860084674
:1010300000680E4908400B4908600846006820F423
:10104000802008600846406820F4FE0048604FF4A5
:101050001F008860FFF753FF4FF0006004490860ED
:1010600010BD0000001002400000FFF8FFFFF6FE78
:1010700008ED00E010B501210B4800F028F8012828
:1010800010D10A480078322803D10021064800F028
:1010900012F806480078401C0449087001210248F3
:1010A00000F006F810BD00000004004030000020F1
:1010B000CA430282704721B1028842F001020280D5
:1010C00004E002884FF6FE731A400280704730B584
:1010D0000246002000230024158A05EA01039589B1
:1010E00005EA010413B10CB1012000E0002030BD7D
:1010F00010B586B00446012144F20400FFF774FEE7
:101100004FF40070ADF8140003208DF8160018207D
:101110008DF8170005A91C48FFF722FD4FF48060E9
:10112000ADF8140004208DF8170005A91648FFF744
:1011300017FD25208DF8000003208DF801008DF8A3
:10114000020001208DF803006846FFF7EDFD0194D1
:101150000020ADF80800ADF80A00ADF80C00ADF8BD
:1011600010000C20ADF80E0001A9084800F0E4F8CA
:10117000012240F22551054800F0B9F80121034849
:1011800000F07FF806B010BD0008014000380140B3
:1011900010B586B0044601210520FFF725FE012188
:1011A0004804FFF711FE18208DF8170003208DF872
:1011B00016000420ADF8140005A91248FFF7D0FC72
:1011C0000820ADF8140004208DF8170005A90D487B
:1011D000FFF7C6FC01940020ADF810000C20ADF81C
:1011E0000E000020ADF80C00ADF80A00ADF80800C4
:1011F00001A9054800F0A0F80121034800F041F8DA
:1012000006B010BD000801400044004010B540F297
:101210002551124800F041F801281ED140F2255115
:101220000E4800F025F80D4800F0F2F8412809D1E9
:1012300000200B4908600B49C1F8B40101210A489C
:10124000FFF739FF054800F0E3F8612805D10748AA
:101250000068C0430349C1F8B40110BD0038014023
:10126000800121420000224200040040B4012242D9
:1012700001F40072B2F5007F00D100BFCA430280C2
:10128000704721B1828942F40052828104E0828950
:101290004DF6FF731A408281704770B502460024F4
:1012A00000230025002040F66A16B14200D100BF9D
:1012B000C1F3421501F01F03012606FA03F3012DC5
:1012C00002D19689334006E0022D02D1168A3340BE
:1012D00001E0968A33400C12012606FA04F41688BF
:1012E000344013B10CB1012000E0002070BDF0B516
:1012F0000346002400260025002040F66A17B94264
:1013000000D100BF1846C1F3421401F01F060127A7
:1013100007FA06F5012C01D10C3004E0022C01D1B2
:10132000103000E014301AB107682F43076002E064
:101330000768AF430760F0BD2DE9F04786B005466A
:101340000E460024A24600BFA1460027B08900B186
:1013500000BF2F462C8A4CF6FF700440F0880443EF
:101360002C82AC894EF6F3100440B08831890843D2
:10137000718908430443AC81AC8A4FF6FF400440B6
:10138000B0890443AC8201A8FFF74EFD1F48874295
:1013900002D1DDF810A001E0DDF80CA0A88900F46E
:1013A000004040B10AEBCA0000EB0A103168490066
:1013B000B0FBF1F807E00AEBCA0000EB0A10316855
:1013C0008900B0FBF1F86420B8FBF0F004012009BB
:1013D000642101FB1089A88900F4004040B132204B
:1013E00000EBC900B0FBF1F000F00700044308E097
:1013F000322000EB09106421B0FBF1F000F00F0087
:1014000004432C8106B0BDE8F0870000003801409D
:1014100001468888C0F308007047C1F30802828043
:10142000704700BFFEE7014600BF704770B5064633
:101430000C46A671002508E0615D0548FFF7EDFF49
:10144000012000F029F8681CC5B2082DF4DB70BD3E
:101450000044004010B56FF00400FFF7C5FD0A48D6
:1014600000680A49B0FBF1F00949087008460078A5
:1014700000EB4001C1EBC0104FF6FF7101EAC00064
:101480000449088010BD00000000002000127A000E
:1014900014000020160000200146114A12884A4319
:1014A0004FF0E0235A6100229A611A46126942F015
:1014B00001021A6100BF4FF0E022106900F0010242
:1014C0001AB100F48032002AF5D04FF0E022126900
:1014D00022F001024FF0E0231A6100229A61704766
:1014E000160000200146114A12784A434FF0E023CB
:1014F0005A6100229A611A46126942F001021A6189
:1015000000BF4FF0E022106900F001021AB100F4B0
:101510008032002AF5D04FF0E022126922F0010259
:101520004FF0E0231A6100229A61704714000020F6
:10153000012003498870002048700870C870704707
:101540003200002000BF054A128802F04002002A43
:10155000F9D0C2B2014B1B1D1A8070470038014000
:101560002DE9F04107460C460025002608E03846E4
:1015700000F00EF805440520FFF78EFF701CC6B280
:10158000A642F4DBB5FBF4F000B2BDE8F081000048
:1015900010B504460623012221460948FFF71AF830
:1015A00001210748FFF777F800BF02210448FEF742
:1015B000D5FF0028F9D00248FEF7CCFF00B210BDDD
:1015C00000240140FFF726FDFFF744FF4FF4A06021
:1015D000FFF7E2FBFFF772F84FF41640FFF788FDC4
:1015E0004FF41650FFF7D4FDFEF728FF00F0E6F8A1
:1015F000FFF77AFB052000F0C9F91EE00A21082058
:10160000FFF7AEFF04460A210920FFF7A9FF0546B0
:10161000292094FBF0F0C0F1640004B2292095FB6E
:10162000F0F0C0F1640005B22A46214603A0FEF79F
:10163000CDFD4FF47A70FFF72FFFDFE7733A256493
:1016400020793A25640D0A0010B5044601201F498F
:1016500008602046FFF720FF4FF4FA70FFF742FFC3
:1016600000201B49C1F8940101201849091D086098
:101670002046FFF711FF4FF4FA70FFF733FF002009
:101680001249091D08600120091D08602046FFF766
:1016900003FF4FF4FA70FFF725FF00200B490831D4
:1016A00008600120091D08602046FFF7F5FE4FF491
:1016B000FA70FFF717FF00200549C1F8A00105489F
:1016C0000088401C0349088010BD0000948121421D
:1016D00000802142380000202DE9F04107460E46E7
:1016E0007FB100240AE0002504E00220FFF7ACFFF0
:1016F000681C85B2B542F8DB601C84B2FF2CF2DDB9
:101700000EE000240AE0002504E0022000F00EF8BC
:10171000681C85B2B542F8DB601C84B2FF2CF2DD98
:101720006420FFF7B9FEBDE8F081000010B5044663
:1017300001201F4908602046FFF7AEFE4FF4FA7003
:10174000FFF7D0FE00201B49C1F8A0010120184975
:10175000091F08602046FFF79FFE4FF4FA70FFF75D
:10176000C1FE00201249091F08600120091F0860FE
:101770002046FFF791FE4FF4FA70FFF7B3FE00200A
:101780000B49083908600120091F08602046FFF74F
:1017900083FE4FF4FA70FFF7A5FE00200549C1F85B
:1017A000940105480088401C0349088010BD0000D2
:1017B000A0812142008021423800002008B501218B
:1017C0000C20FFF711FB10208DF803003320ADF83B
:1017D000000003208DF8020069460D48FFF7C0F9AC
:1017E00033210B48FFF747FA10208DF803004FF420
:1017F000F070ADF8000003208DF80200694605483E
:10180000FFF7AEF94FF4F0710248FFF734FA08BD64
:1018100000080140000C014010B5044601201F499A
:1018200008602046FFF738FE4FF4FA70FFF75AFEC3
:1018300000201B49C1F8800101201849091D0860DA
:101840002046FFF729FE4FF4FA70FFF74BFE002009
:101850001249091D08600120104910310860204616
:10186000FFF71AFE4FF4FA70FFF73CFE00200B4919
:10187000103108600120091D08602046FFF70CFEAA
:101880004FF4FA70FFF72EFE00200549C1F89401CD
:1018900004480088401C0349088010BD8001214293
:1018A00000002142380000202DE9F04107460E4695
:1018B0007FB100240AE0002504E00220FFF7ACFF1E
:1018C000681C85B2B542F8DB601C84B2FF2CF2DDE7
:1018D0000EE000240AE0002504E0022000F00EF8EB
:1018E000681C85B2B542F8DB601C84B2FF2CF2DDC7
:1018F0006420FFF7D1FDBDE8F081000010B504467B
:1019000001201F4908602046FFF7C6FD4FF4FA701A
:10191000FFF7E8FD00201B49C1F894010120184998
:10192000091F08602046FFF7B7FD4FF4FA70FFF774
:10193000D9FD00201249091F086001201049103903
:1019400008602046FFF7A8FD4FF4FA70FFF7CAFDC4
:1019500000200B49103908600120091F086020464B
:10196000FFF79AFD4FF4FA70FFF7BCFD0020054920
:10197000C1F8800104480088401C0349088010BD5C
:1019800094012142000021423800002010B5044695
:10199000062C18D2DFE804F01703070B0F130D48CD
:1019A00000F020F813E00C4800F01CF80FE00B48A2
:1019B00000F018F80BE00A4800F040F807E008488B
:1019C00000F022F803E00F20FFF766FD00BF00BF24
:1019D00010BD0000420000205A00002062000020DC
:1019E0007200002070B50546002408E0295D054816
:1019F000FFF713FD0120FFF74FFD601CC4B2082C58
:101A0000F4DB70BD0044004070B50446A0790F308F
:101A1000A071A0791E2801DB1E20A071002508E01E
:101A2000615D0548FFF7F9FC0120FFF735FD681CF3
:101A3000C5B2082DF4DB70BD0044004070B504460B
:101A4000A079801EA071A079052801DC0520A07175
:101A5000002508E0615D0548FFF7DFFC0120FFF786
:101A60001BFD681CC5B2082DF4DB70BD00440040AE
:101A7000901A0008000000209400000028010008CF
:101A8000241B0008940000206406000044010008A4
:101A900000A24A040000000000000000010203044C
:101AA0000607080900000000000000000000000018
:101AB00001020304010203040607080902040608E0
:101AC000000000000000000000007EFF0601000092
:101AD00000EF7EFF0602000000EF7EFF0619000007
:101AE00000EF7EFF0611000001EF7EFF060D0000F3
:101AF00000EF7EFF060E000000EF7EFF06030000F1
:101B000001EF7EFF060600001DEF7EFF06030000CA
:101B100001EF7EFF0608000001EF7EFF0643000094
:041B200000EF0000D2
:04000005080001915D
:00000001FF
