:020000040800F2
:10000000E8110020910400089502000897020008FA
:100010009B0200089F020008A302000800000000E5
:10002000000000000000000000000000A70200081F
:10003000A902000800000000AB020008AD020008A1
:10004000AB040008AB040008AB040008AB040008D4
:10005000AB040008AB040008AB040008AB040008C4
:10006000AB040008AB040008AB040008AB040008B4
:10007000AB040008AB040008AB040008AB040008A4
:10008000AB040008AB040008AB040008AB04000894
:10009000AB040008AB040008AB040008AB04000884
:1000A000AB040008E9390008AB040008AB04000801
:1000B000AB040008AB040008AB040008AB04000864
:1000C000AB040008AB040008AB040008AB04000854
:1000D000AB0400085D2600087B260008992600086E
:1000E000AB040008AB040008AB040008AB04000834
:1000F000AB040008AB040008AB040008AB04000824
:10010000AB040008AB040008AB040008AB04000813
:10011000AB040008AB040008AB040008AB04000803
:10012000AB040008AB040008AB040008AB040008F3
:1001300000F002F800F03AF80AA090E8000C8244BF
:100140008344AAF10107DA4501D100F02FF8AFF29C
:10015000090EBAE80F0013F0010F18BFFB1A43F0A5
:100160000103184790610000B0610000103A24BFFD
:1001700078C878C1FAD8520724BF30C830C144BF0C
:1001800004680C607047000000230024002500264E
:10019000103A28BF78C1FBD8520728BF30C148BFEA
:1001A0000B6070471FB51FBD10B510BD04F026FBD6
:1001B0001146FFF7F7FF00F00FF804F044FB03B41B
:1001C000FFF7F2FF03BC02F015F90000002100E088
:1001D000491C8142FCD3704710B590B0002402F056
:1001E0009FF84FF4A06000F073F94FF4E13002F093
:1001F00010F94FF4165002F059F94FF4165002F06E
:10020000A3F940F28F1140F60F6003F08DFB4FF41D
:1002100048711A4801F03AFE4FF46171174801F035
:1002200037FE4FF48771154801F034FE03F0FFF8F4
:1002300004F008FA04F0C9F9684602F07DFB0446B0
:100240001CB90FA003F0B9FF04E0114803F0B5FF9B
:1002500000BFFEE70021094801F018FE0021074811
:1002600001F016FE41F61F4142F20F7003F02AFB27
:10027000684603F08EF8002010B010BD0008004062
:10028000496E697420537563636573730D0A0000CA
:1002900028620008704700BFFEE700BFFEE700BF0E
:1002A000FEE700BFFEE770477047704770470000E9
:1002B0000CB50020019000906C48006840F480303C
:1002C0006A49086000BF6948006800F40030009087
:1002D0000198401C0190009818B90198B0F5A06FE2
:1002E000F1D16248006800F4003010B101200090A4
:1002F00001E0002000900098012843D15C4800688C
:1003000040F010005A4908600846006820F00300D9
:1003100008600846006840F00200086053484068E2
:10032000524948600846406848600846406840F4C2
:10033000806048600846406820F47C1048600846A9
:10034000406840F4E81048600846006840F080705B
:10035000086000BF4548006800F000700028F9D030
:100360004248406820F00300404948600846406821
:1003700040F00200486000BF3C48406800F00C00BC
:100380000828F9D10CBD10B5FFF792FF10BD10B5CC
:100390003648006840F0010034490860084640686B
:1003A00034490840314948600846006832490840ED
:1003B0002E4908600846006820F48020086008463E
:1003C000406820F4FE0048604FF41F008860FFF78B
:1003D000DAFF4FF000602949086010BD10B5002118
:1003E00000200022214B5B6803F00C0121B104299D
:1003F00006D0082928D107E0214B224C236027E0B2
:100400001F4B204C236023E0184B5B6803F47010F3
:10041000164B5B6803F48032022303EB904022B951
:10042000194B4343174C23600DE0104B5B6803F4FA
:10043000003323B1144B4343124C236003E0104BB1
:100440004343104C236003E00D4B0E4C236000BF70
:1004500000BF064B5B68C3F303130C4CE15C094B14
:100460001B68CB40074C236010BD00000010024009
:10047000002002400000FFF8FFFFF6FE08ED00E05C
:1004800000127A000000002000093D000400002056
:100490000948804709480047FEE7FEE7FEE7FEE718
:1004A000FEE7FEE7FEE7FEE7FEE7FEE70448054954
:1004B000054A064B704700008F0300083101000811
:1004C000E80B0020E8110020E80D0020E80D0020D6
:1004D00031490143314A1160704770B50021002352
:1004E0000F22C47804B32D4C246804F4E064C4F5EE
:1004F000E064210AC1F10403CA40447804FA03F11C
:100500008478144021430901254C0678A1550478CC
:1005100004F01F050124AC4005786D11AD0005F114
:10052000E025C5F8004109E0047804F01F05012426
:10053000AC401C4D0678761145F8264070BD1A4A2D
:100540000A400243154B1B1F1A60704739B1134A0A
:10055000121D12680243114B1B1D1A6006E00F4A60
:10056000121D126882430D4B1B1D1A607047042830
:1005700008D14FF0E021096941F004014FF0E02279
:10058000116107E04FF0E021096921F004014FF00B
:10059000E0221161704700000000FA050CED00E058
:1005A00000E400E080E100E080FFFF1F10B504469A
:1005B000FA48844208D10121401500F055FD002180
:1005C000601500F051FD17E0F548844208D1012183
:1005D000001500F049FD0021201500F045FD0BE05D
:1005E000F048844208D10121C80300F03DFD0021FC
:1005F0004FF4004000F038FD10BD30B50246002039
:1006000000235068E84C20400D790C6844EA05242A
:10061000204350609068E54C2040D1E902542C43BF
:100620004D7944EA450420439060D06A20F470007C
:100630000C7C641EE4B2234340EA0350D06230BD18
:1006400000210160017141718160C160012101746B
:10065000704721B1826842F00102826003E0826843
:1006600022F001028260704721B1826842F48072F8
:10067000826003E0826822F480728260704710B565
:100680000023CBB21AB144681C43446002E04468C2
:100690009C43446010BD816841F00801816070474F
:1006A000014600208A6802F008020AB1012000E039
:1006B00000207047816841F0040181607047014665
:1006C00000208A6802F004020AB1012000E0002044
:1006D000704721B1826842F4A002826003E0826820
:1006E00022F4A00282607047014600208A6802F46A
:1006F00080020AB1012000E00020704710B50A46D0
:1007000000210023416821F46041531E41EA433136
:10071000416010BD21B1426842F40062426003E0D2
:10072000426822F4006242607047F0B504460D460C
:1007300000200021092D11DDE068A5F10A0606EB75
:100740004607072606FA07F18843A5F10A0606EBD5
:10075000460603FA06F10843E0600CE0206905EB69
:100760004507072606FA07F1884305EB450603FA15
:1007700006F108432061072A0FDA606B561E06EB6C
:1007800086071F2606FA07F18843561E06EB8606E3
:1007900005FA06F10843606322E00D2A0FDA206BA8
:1007A000D61F06EB86071F2606FA07F18843D61FD9
:1007B00006EB860605FA06F10843206310E0E06ABE
:1007C000A2F10D0606EB86071F2606FA07F18843FD
:1007D000A2F10D0606EB860605FA06F10843E06273
:1007E000F0BD21B1826842F48012826003E0826829
:1007F00022F48012826070470146C86C80B2704754
:1008000066484C300068704721B1426842F480620B
:10081000426003E0426822F480624260704721B186
:10082000426842F48052426003E0426822F48052FF
:10083000426070470A460021816821F4E04111437B
:100840008160704721B1826842F40042826003E017
:10085000826822F400428260704721B1826842F4CB
:100860000212826003E0826822F402128260704702
:10087000014600208A6802F400120AB1012000E05B
:1008800000207047F0B504461546002000220026DF
:10089000092911DDE068A1F10A0707EB470C0727DA
:1008A00007FA0CF29043A1F10A0707EB470703FA96
:1008B00007F21043E0600CE0206901EB410C0727D0
:1008C00007FA0CF2904301EB410703FA07F21043D9
:1008D0002061A06BC0F30156EF1C06F1010CA7EBE1
:1008E0000C0707EB870C1F2707FA0CF29043EF1C4D
:1008F00006F1010CA7EB0C0707EB870701FA07F2DB
:100900001043A063F0BD10B50A4600210023816B9F
:1009100021F44011531E41EA0351816310BD08B513
:10092000002300930090009B0B440093009B1A60EF
:1009300008BD08B5024600200090009201F1280091
:10094000009B184400900098006880B208BD0A46D9
:1009500000214168164B19401143416070474162C4
:10096000826270470A460021416821F01F0111434D
:100970004160704740B109490831096841F40001FC
:10098000064A0832116007E004490831096821F479
:100990000001024A08321160704700000024014043
:1009A00000280140003C0140FFFEF0FFFDF7F1FF91
:1009B000FFFD3FFF0246002013680B400BB10120F2
:1009C00000E000207047CA430260704770B50246DD
:1009D0000020002300240B125568CEB205EA06045D
:1009E00015681D4015B10CB1012000E0002070BD5C
:1009F00000220A12D34303607047000010B504467A
:100A0000CC48844208D10121042000F02DFB0021B4
:100A1000042000F029FB46E0C748844208D10121A8
:100A2000082000F021FB0021082000F01DFB3AE027
:100A3000C248844208D10121102000F015FB00219A
:100A4000102000F011FB2EE0BD48844208D10121A6
:100A5000202000F009FB0021202000F005FB22E00F
:100A6000B848844208D10121402000F0FDFA00215D
:100A7000402000F0F9FA16E0B348844208D1012181
:100A8000802000F0F1FA0021802000F0EDFA0AE069
:100A9000AE48844207D10121801500F0E5FA00211B
:100AA000A01500F0E1FA10BD10B50121084600F0D4
:100AB000DBFA0021012000F0D7FA10BD2DE9F0414A
:100AC000024600250026002000230024002791F87C
:100AD00003C00CF00F0591F803C00CF0100CBCF132
:100AE000000F03D091F802C04CEA050591F800C050
:100AF000BCF1000F31D0146800202BE04FF0010C46
:100B00000CFA00F3B1F800C00CEA03069E4220D1B3
:100B100083004FF00F0C0CFA03F7BC4305FA03FCFB
:100B20004CEA040491F803C0BCF1280F06D14FF041
:100B3000010C0CFA00FCC2F814C00AE091F803C0E2
:100B4000BCF1480F05D14FF0010C0CFA00FCC2F8C3
:100B500010C0401C0828D1D31460B1F800C0BCF10B
:100B6000FF0F34DD546800202EE000F1080C4FF038
:100B7000010808FA0CF3B1F800C00CEA03069E4223
:100B800021D183004FF00F0C0CFA03F7BC4305FA98
:100B900003FC4CEA040491F803C0BCF1280F05D112
:100BA00000F1080C08FA0CF8C2F8148091F803C0A0
:100BB000BCF1480F07D100F1080C4FF0010808FA0A
:100BC0000CF8C2F81080401C0828CED35460BDE851
:100BD000F0814FF6FF710180022181700421C17004
:100BE00070470246002093680B400BB1012000E0E3
:100BF000002070470146886880B270470246002096
:100C0000D3680B400BB1012000E000207047014683
:100C1000C86880B2704701617047416170470AB18E
:100C2000016100E041617047C16070474FF480325C
:100C30000A438261816182618269826970470246EA
:100C40000020434B18684FF68073184040EA0210AA
:100C500008433F4B186070473E49C8617047F0B584
:100C60000A46002300240021002500F00046B6F1CA
:100C7000004F02D1364EF16901E0354E7168C0F384
:100C8000034583B200F44016B6F5401F08D121F0A9
:100C900070612F4E766826F070662D4F7E6012E0F0
:100CA00000F48016B6F5801F06D1032606FA05F477
:100CB000A14341F0706106E0460D360103FA06F6E5
:100CC000B14341F0706122B1460D360103FA06F6D8
:100CD000314300F00046B6F1004F02D11C4EF161E5
:100CE00001E01B4E7160F0BD30B500228B071C0F78
:100CF0000F2303FA04F2164B08338C1053F82430F8
:100D00009343134C08348D1044F8253023468C103F
:100D100053F824308C07240F00FA04F423430C4CBE
:100D200008348D1044F8253030BD0A49DC310860A4
:100D30007047000000080140000C01400010014015
:100D40000014014000180140001C01400020014037
:100D50000000014000002042DF48006840F0010030
:100D6000DD49086008464068DC490840DA494860C7
:100D700008460068DA490840D74908600846006814
:100D800020F4802008600846406820F4FE00486097
:100D90004FF41F0088607047CF49096821F4803103
:100DA000CD4A11601146096821F480211160B0F527
:100DB000803F03D0B0F5802F0ED106E0C649096808
:100DC00041F48031C44A116007E0C349096841F425
:100DD000A021C14A116000E000BF00BF704710B5FC
:100DE00001460022002300204A11012A02D1BA4CF8
:100DF000236806E0022A02D1B74C236A01E0B64C10
:100E0000636A01F01F02012494401C400CB10120D0
:100E100000E0002010BD38B500200090002400251F
:100E200000BF3120FFF7DBFF05460098401C009013
:100E30000098B0F5A06F01D0002DF2D03120FFF75F
:100E4000CEFF08B1012400E00024204638BD014651
:100E50000020A14A106820F0F80040EAC1001060AC
:100E60007047A04908607047024600209A4B5868B6
:100E700020F47C1042EA01031843974B58607047F6
:100E800098490866704701460020934A506820F050
:100E900003000843506070478F48406800F00C0022
:100EA0007047014600208C4A506820F0F00008434B
:100EB0005060704701460020874A506820F4E06087
:100EC00008435060704701460020834A506820F470
:100ED000605040EAC1005060704729B17E4A527AA2
:100EE00002437D4B5A7204E07B4A527A82437A4B2A
:100EF0005A7270477B49D83108607047014600201C
:100F0000754A506820F44040084350607047002103
:100F1000714A20321170704A82F82010012802D0E4
:100F200004280AD104E001216B4A2032117005E047
:100F30000521694A2032117000E000BF00BF7047F0
:100F40006949086070476449096A0143624A11624D
:100F50007047654944390860704730B50021002268
:100F6000002400235C4D6D6805F00C0121B10429BB
:100F700005D0082923D105E05C4D056022E05B4DDA
:100F800005601FE0544D6D6805F47012524D6D6898
:100F900005F48034022505EB92421CB9544D5543AB
:100FA00005600BE04C4D6D6805F400351DB1504DEA
:100FB0005543056002E04D4D5543056002E04B4D41
:100FC000056000BF00BF444D6D6805F0F0010909E0
:100FD000484D6B5C0568DD4045603F4D6D6805F42C
:100FE000E061090A434D6B5C4568DD4085603A4D20
:100FF0006D6805F46051C90A3E4D6B5C4568DD4083
:10100000C560354D6D6805F44041890B3A4D6B5C08
:10101000C568B5FBF3F5056130BD29B12E4A5269AB
:1010200002432D4B5A6104E02B4A526982432A4BFA
:101030005A61704729B1284A92690243264B9A6146
:1010400004E0254A92698243234B9A61704729B193
:10105000214AD2690243204BDA6104E01E4AD26978
:1010600082431D4BDA61704729B11B4AD2680243A3
:10107000194BDA6004E0184AD2688243164BDA60F2
:10108000704729B1144A12690243134B1A6104E0F4
:10109000114A12698243104B1A6170471249403954
:1010A000086070470F49C86470470B49C8717047A2
:1010B0000948406A40F0807007494862704701461D
:1010C0000020054A92680A400AB1012000E0002091
:1010D0007047014988727047001002400000FFF815
:1010E000FFFFF6FE000042428004424200127A00F6
:1010F00000093D00140000202400002010B5044623
:10110000FE48844208D10121C014FFF7ADFF002141
:10111000E014FFF7A9FFC4E0B4F1804F08D101212A
:101120000846FFF7AEFF00210120FFF7AAFFB8E055
:10113000F348844208D101210220FFF7A2FF0021D9
:101140000220FFF79EFFACE0EE48844208D1012167
:101150000420FFF796FF00210420FFF792FFA0E094
:10116000E948844208D101210820FFF78AFF0021C5
:101170000820FFF786FF94E0E448844208D101216B
:101180001020FFF77EFF00211020FFF77AFF88E094
:10119000DF48844208D101212020FFF772FF00219F
:1011A0002020FFF76EFF7CE0DA48844208D101215D
:1011B0004014FFF759FF00216014FFF755FF70E05E
:1011C000D548844209D10121C804FFF74DFF002111
:1011D0004FF40020FFF748FF63E0D048844209D174
:1011E00001210805FFF740FF00214FF48010FFF7B1
:1011F0003BFF56E0CA48844209D101214805FFF768
:1012000033FF00214FF40010FFF72EFF49E0C548DF
:10121000844208D101214020FFF733FF0021402004
:10122000FFF72FFF3DE0C048844208D10121802014
:10123000FFF727FF00218020FFF723FF31E0BB48A5
:10124000844208D101218015FFF71BFF0021A01562
:10125000FFF717FF25E0B648844209D101210804B1
:10126000FFF702FF00214FF48030FFF7FDFE18E08A
:10127000B048844209D101214804FFF7F5FE00215E
:101280004FF40030FFF7F0FE0BE0AB48844208D18A
:1012900001218804FFF7E8FE00214FF48020FFF7CA
:1012A000E3FE10BD00220288944B98420ED0994B69
:1012B00098420BD0B0F1804F08D0914B984205D0A6
:1012C000904B984202D0904B984204D14FF68F73C6
:1012D0001A404B881A438D4B984207D08C4B98424A
:1012E00004D04FF6FF431A40CB881A4302808B8804
:1012F00083850B880385814B98420BD0854B9842A0
:1013000008D08B4B984205D08A4B984202D08A4B2A
:10131000984201D10B7A038601238382704770B50E
:10132000002400220023058C4FF6FE76354005840C
:10133000028C8388048B4FF68F752C40B51E2C4091
:101340000D882C43751E2A400D892A434D882A4357
:101350006A4DA8420BD06F4DA84208D0744DA842E8
:1013600005D0744DA84202D0734DA84213D14FF658
:10137000F7752A404D892A434FF6FB752A408D8820
:101380002A434FF6FF652B404FF6FF552B408D89C2
:101390002B43CD892B4383800483CD8885860284AB
:1013A00070BD70B5002400220023058C4FF6EF7647
:1013B00035400584028C8388048B48F6FF752C40E9
:1013C0004FF6FF452C400D884FF6FF7606EA0525BF
:1013D0002C434FF6DF752A400D8906EA05152A438E
:1013E0004D8806EA05152A43444DA84202D0494DCE
:1013F000A8421DD14FF67F752A404D894FF6FF76E2
:1014000006EA05152A434FF6BF752A408D8806EA7D
:1014100005152A434FF6FF352B404FF2FF752B4041
:101420008D8906EA85052B43CD8906EA85052B4380
:1014300083800483CD880587028470BD70B5002445
:1014400000220023058C4FF6FF6635400584028C90
:101450008388848B4FF68F752C404FF6FC752C409B
:101460000D882C434FF6FF552A400D894FF6FF7625
:1014700006EA05252A434D8806EA05252A431F4D1D
:10148000A84202D0234DA8421DD14FF2FF752A4039
:101490004D894FF6FF7606EA05252A434FF6FF35BC
:1014A0002A408D8806EA05252A434EF6FF752B4013
:1014B0004DF6FF752B408D8906EA05152B43CD8926
:1014C00006EA05152B4383808483CD8885870284B3
:1014D00070BD70B5002200230024058C4EF6FF7607
:1014E00035400584038C8488828B48F6FF752A403A
:1014F0004FF6FF452A400D8820E00000002C0140F7
:101500000004004000080040000C004000100040B3
:101510000014004000340140004C014000500140E4
:101520000054014000180040001C00400020004012
:101530000040014000440140004801404FF6FF7662
:1015400006EA05252A434DF6FF752B400D8906EA6C
:1015500005352B434D8806EA05352B43FA4DA84245
:1015600002D0FA4DA84208D14BF6FF752C408D8968
:101570004FF6FF7606EA85152C4384808283CD885A
:10158000A0F84050038470BD828B4FF2FF331A40A5
:101590008283828B4FF6FF7303EA01231A4382830F
:1015A0007047F0B50C461546002200210026078C36
:1015B0004EF6FF7C07EA0C070784828B018C4FF6FE
:1015C000FF7707EA043640F6FF473A404FF6FF77C9
:1015D00007EA05273A434FF6FF7707EA03373A430E
:1015E000D94FB8420ED0D94FB8420BD0B0F1804F8E
:1015F00008D0D74FB84205D0D64FB84202D0D64F08
:10160000B84206D14DF6FF77394046F4805739434A
:1016100005E047F6FF57394044F480573943828349
:101620000184F0BD828B4FF6F3731A408283828B64
:101630000A4382837047F0B50C461546002200210C
:101640000026078C4FF6FF6C07EA0C070784828B95
:10165000018C4FF6FF7707EA04264FF60C773A40E5
:101660004FF6FF7707EA03172F433A43B64FB842C6
:101670000ED0B64FB8420BD0B0F1804F08D0B44F67
:10168000B84205D0B34FB84202D0B34FB84206D1EA
:101690004FF6FF57394046F48077394305E04FF263
:1016A000FF57394044F48077394382830184F0BD89
:1016B000028B4FF2FF331A400283028B4FF6FF7307
:1016C00003EA01231A4302837047F0B50C4615461E
:1016D000002200210026078C4FF6EF7C07EA0C075A
:1016E0000784028B018C4FF6FF7707EA041640F659
:1016F000FF473A404FF6FF7707EA03373A434FF682
:10170000FF7707EA05273A438F4FB8420ED08F4F35
:10171000B8420BD0B0F1804F08D08D4FB84205D001
:101720008C4FB84202D08C4FB84206D14FF6DF77CB
:10173000394046F01007394305E04FF65F773940EE
:1017400044F01007394302830184F0BD028B4FF649
:10175000F3731A400283028B0A4302837047F0B589
:101760000C46154600220021068C4FF6FE773E40BF
:101770000684028B018C4FF60C7632407E1C06EA02
:1017800003162E433243704EB0420ED06F4EB0421D
:101790000BD0B0F1804F08D06D4EB04205D06D4EE9
:1017A000B04202D06C4EB04206D14FF6FD763140C9
:1017B00044F00106314305E04FF6F576314044F040
:1017C0000106314302830184F0BD70B505460C4625
:1017D0005D4885420ED05D4885420BD0B5F1804F03
:1017E00008D05B48854205D05A48854202D05A4805
:1017F000854200D100E000BF208850B92389A2882B
:1018000061882846FFF7ABFFE1882846FFF79EFF77
:1018100025E0208804280AD12389A28861882846E7
:10182000FFF753FFE1882846FFF742FF17E02088C3
:1018300008280AD12389A28861882846FFF7FBFE81
:10184000E1882846FFF7EEFE09E02389A288618837
:101850002846FFF7A6FEE1882846FFF795FE70BDF3
:101860002DE9F04105460C4600260127608808B99D
:10187000022600E00026A088012801D1022700E00E
:1018800001272088A0B92389A28861882846FFF70C
:1018900066FFE1882846FFF759FF23893A4631461B
:1018A0002846FFF712FFE1882846FFF701FF13E003
:1018B0002389A28861882846FFF707FFE188284628
:1018C000FFF7F6FE23893A4631462846FFF747FFE1
:1018D000E1882846FFF73AFFBDE8F0810A884B8887
:1018E0001A438B881A43CB881A430B891A434B89B6
:1018F0001A438B891A43A0F8442070474FF6FF71B2
:10190000818000210180C1804180017270470021E7
:10191000018041808180C180018141818181C181BB
:101920007047002101804180012181800021C18018
:10193000018170470021018041808180C180018147
:101940004181818170470000002C0140003401403A
:101950000004004000080040000C004021B1028853
:1019600042F00102028004E002884FF6FE731A4042
:101970000280704731B1B0F8442042F40042A0F830
:10198000442005E0B0F84420C2F30E02A0F8442041
:1019900070471AB183890B43838102E083898B43AB
:1019A000838170478182704741EA0203A0F8483082
:1019B00070471AB183890B43838102E083898B438B
:1019C0008381704701894FF6F87211400181704799
:1019D0000A46002101894FF68F7319401143018196
:1019E000704730B504460D4629462046FFF7F0FF04
:1019F000208940F00700208130BD2DE9F0410446E8
:101A00000D4616461F46602D06D13B460122314643
:101A10002046FFF75AFE05E03B46012231462046AC
:101A2000FFF79DFE29462046FFF7D2FF208940F0B0
:101A300007002081BDE8F08130B50C460021018906
:101A4000C9B24FF6FF7505EA03251543254329431F
:101A5000018130BD2DE9F04105460E4617469846F6
:101A6000002443463A4631462846FFF7E5FF2C89D5
:101A70004FF6F870044044F007044FF68F700440AE
:101A800044F070042C81BDE8F081F0B504460D46A9
:101A900016461F463B46324629462046FFF7CCFFF6
:101AA000208940F480402081F0BD0185828270470A
:101AB0000A46002101884FF68F73194011430180B7
:101AC0007047F0B50C4615461E4600210022002343
:101AD0000189028B038C4FF6F877394021434FF68A
:101AE000FC473A4040F201173A434FF6DD773B405E
:101AF0004FF6FF7707EA06172F433B430181028326
:101B00000384F0BD0A460021018B4FF68F73194004
:101B10001143018370470A460021018B48F6FF7389
:101B200019404FF6FF7303EA0223194301837047FC
:101B30000A460021818B4FF68F7319401143818330
:101B400070470A460021818B48F6FF7319404FF613
:101B5000FF7303EA022319438183704721B102888E
:101B600042F08002028004E002884FF67F731A4040
:101B70000280704721B1828842F00402828004E032
:101B800082884FF6FB731A408280704721B18288A9
:101B900042F00802828004E082884FF6F7731A4010
:101BA0008280704721B1828842F00102828004E085
:101BB00082884FF6FE731A40828070470A460021E1
:101BC000018B4FF6F77319401143018370470A46A2
:101BD0000021018B4FF2FF7319404FF6FF7303EAA8
:101BE00002231943018370470A460021818B4FF677
:101BF000F77319401143818370470A460021818B96
:101C00004FF2FF7319404FF6FF7303EA02231943A3
:101C1000818370470A460021018B4FF6FB73194000
:101C20001143018370470A460021018B4FF6FF33B1
:101C300019404FF6FF7303EA0223194301837047EB
:101C40000A460021818B4FF6FB73194011438183B3
:101C500070470A460021818B4FF6FF3319404FF63B
:101C6000FF7303EA02231943818370470A46002168
:101C7000018B4FF67F7319401143018370470A4669
:101C80000021018BC1F30E014FF6FF7303EA02231B
:101C90001943018370470A460021818B4FF67F73F9
:101CA00019401143818370470A460021818BC1F39B
:101CB0000E014FF6FF7303EA022319438183704735
:101CC0000A460021018C4FF6FD731940114301842F
:101CD00070470A460021018C4FF6F77319401143F3
:101CE000018470470A460021018C4FF6DF731940CA
:101CF0004FF6FF7303EA02131943018470470A4643
:101D00000021018C4FF67F7319404FF6FF7303EAF1
:101D100002131943018470470A460021018C4FF6D3
:101D2000FF5319404FF6FF7303EA0223194301845E
:101D300070470A460021018C4FF2FF7319404FF69D
:101D4000FF7303EA02231943018470470A46002106
:101D5000018C4DF6FF7319404FF6FF7303EA02330F
:101D600019430184704730B5002301248C40A3B28D
:101D7000048C9C430484048C02FA01F5ADB22C431C
:101D8000048430BD30B5002304248C40A3B2048CFD
:101D90009C430484048C02FA01F5ADB22C43048404
:101DA00030BD70B5034600200024184618300125C8
:101DB0008D40ACB21D8CA5431D8409B1082909D101
:101DC00000EB6100056825F07005056005681543A6
:101DD00005600EE00D1FC5F34E052844056825F487
:101DE000E045056005684FF6FF7606EA02263543B2
:101DF000056070BD21B1028842F00202028004E059
:101E000002884FF6FD731A400280704721B10288A4
:101E100042F00402028004E002884FF6FB731A408D
:101E20000280704721B1828842F08002828004E003
:101E300082884FF67F731A408280704702884FF67F
:101E4000F7731A40028002880A4302807047828832
:101E50004FF68F731A40828082880A4382807047CF
:101E600002894FF6F8731A40028102890A430281FF
:101E7000704702894FF67F731A40028102890A4334
:101E800002817047818470478185704781867047E1
:101E90000187704781877047A0F84010704702881B
:101EA0004FF6FF431A40028002880A4302807047BF
:101EB0000146888E70470146088F70470146888F1B
:101EC00070470146B1F8400070470146888C704762
:101ED0000146088D704702460020138A0B400BB163
:101EE000012000E000207047CA430282704730B5ED
:101EF0000246002000230024158A05EA0103958983
:101F000005EA010413B10CB1012000E0002030BD4E
:101F1000CA4302827047000010B50446FB48844261
:101F200009D101218803FFF79FF800214FF4804079
:101F3000FFF79AF832E0F648844209D101214804BB
:101F4000FFF79FF800214FF40030FFF79AF825E0E3
:101F5000F048844209D101218804FFF792F800215A
:101F60004FF48020FFF78DF818E0EB48844209D148
:101F70000121C804FFF785F800214FF40020FFF786
:101F800080F80BE0E548844208D101210805FFF7FD
:101F900078F800214FF48010FFF773F810BD2DE999
:101FA000F04786B005460E460024A24600BFA14673
:101FB0000027B08900B100BF2F462C8A4CF6FF7075
:101FC0000440F08804432C82AC894EF6F3100440A0
:101FD000B08831890843718908430443AC81AC8AD5
:101FE0004FF6FF400440B0890443AC8201A8FEF7DD
:101FF000B4FFC648874202D1DDF810A001E0DDF849
:102000000CA0A88900F4004040B10AEBCA0000EB24
:102010000A1031684900B0FBF1F807E00AEBCA008A
:1020200000EB0A1031688900B0FBF1F86420B8FBBE
:10203000F0F004012009642101FB1089A88900F453
:10204000004040B1322000EBC900B0FBF1F000F0DD
:102050000700044308E0322000EB09106421B0FBC4
:10206000F1F000F00F0004432C8106B0BDE8F087CA
:102070004FF41651016000218180C18001810C2143
:10208000418100218181704710B502460020108AED
:102090004FF2FF0318400B884C8823438C8823435E
:1020A000CC8823431843108210BD00210180418059
:1020B0008180C180704721B1828942F400528281BF
:1020C00004E082894DF6FF731A4082817047F0B5B3
:1020D0000346002400260025002040F66A17B94276
:1020E00000D100BF1846C1F3421401F01F060127BA
:1020F00007FA06F5012C01D10C3004E0022C01D1C5
:10210000103000E014301AB107682F43076002E076
:102110000768AF430760F0BD1AB1838A0B4383821F
:1021200002E0838A8B4383827047028A4FF6F07302
:102130001A400282028A0A430282704782894FF261
:10214000FF731A40828182890A438281704721B1DC
:10215000828942F00202828104E082894FF6FD7397
:102160001A4082817047028A4FF6DF731A4002825A
:10217000028A0A430282704721B1028A42F48042F5
:10218000028204E0028A4BF6FF731A400282704713
:10219000C1F308028280704701468888C0F30800B6
:1021A0007047818941F0010181817047028BD2B271
:1021B0000283028B42EA012202837047028B02F4FF
:1021C0007F420283028B0A430283704721B1828AD5
:1021D00042F02002828204E0828A4FF6DF731A40C6
:1021E0008282704721B1828A42F01002828204E02A
:1021F000828A4FF6EF731A408282704721B1828A39
:1022000042F00802828204E0828A4FF6F7731A4095
:102210008282704721B1828942F40042828103E0C8
:102220008289C2F30E028281704721B1828A42F410
:102230000062828204E0828A4FF2FF731A40828237
:102240007047828A4FF6FB731A408282828A0A4361
:102250008282704721B1828A42F00202828204E0C7
:10226000828A4FF6FD731A40828270470246002030
:10227000B1F5007F00D100BF13880B400BB10120E6
:1022800000E00020704701F40072B2F5007F00D139
:1022900000BFCA430280704770B502460024002385
:1022A0000025002040F66A16B14200D100BFC1F3FC
:1022B000421501F01F03012606FA03F3012D02D196
:1022C0009689334006E0022D02D1168A334001E0A0
:1022D000968A33400C12012606FA04F4168834401C
:1022E00013B10CB1012000E0002070BD10B5002238
:1022F000002340F66A14A14200D100BF0A12012453
:102300009440A3B2DC43048010BD000000380140BB
:102310000044004000480040004C00400050004095
:1023200010B56FF00400FEF722F92E4800682E4920
:10233000B0FBF1F02D4908700846007800EB400131
:10234000C1EBC0104FF6FF7101EAC00028490880B8
:1023500010BD0146254A12784A434FF0E0235A61E6
:1023600000229A611A46126942F001021A6100BF06
:102370004FF0E022106900F001021AB100F480323F
:10238000002AF5D04FF0E022126922F001024FF04E
:10239000E0231A6100229A6170470146144A1288AC
:1023A0004A434FF0E0235A6100229A611A461269AB
:1023B00042F001021A6100BF4FF0E022106900F004
:1023C00001021AB100F48032002AF5D04FF0E02269
:1023D000126922F001024FF0E0231A6100229A6193
:1023E000704700000000002000127A002800002042
:1023F0002A000020014600BF704700BFAE4A128885
:1024000002F04002002AF9D0C2B2AB4B1B1D1A8069
:10241000704710B586B00446012144F20400FEF76F
:1024200009FE4FF40070ADF8140003208DF816007B
:1024300018208DF8170005A9A048FEF73FFB4FF4C0
:102440008060ADF8140004208DF8170005A99B48A2
:10245000FEF734FB25208DF8000002208DF80100E6
:1024600000208DF8020001208DF803006846FEF779
:1024700034F801940020ADF80800ADF80A00ADF87A
:102480000C00ADF810000C20ADF80E0001A98A4830
:10249000FFF785FD012240F225518748FFF717FE1F
:1024A00001218548FFF707FE06B010BD10B586B0C4
:1024B000044601214804FEF7CAFD01210420FEF76D
:1024C000B9FD0420ADF8140003208DF81600182083
:1024D0008DF8170005A97948FEF7F0FA0820ADF845
:1024E000140004208DF8170005A97448FEF7E6FAD9
:1024F00026208DF8000003208DF8010002208DF8C1
:10250000020001208DF803006846FDF7E6FF019404
:102510000020ADF80800ADF80A00ADF80C00ADF8E9
:1025200010000C20ADF80E0001A96548FFF737FD3B
:10253000012240F225516248FFF7C9FD01216048A0
:10254000FFF7B9FD06B010BD10B586B004460121F5
:102550008804FEF77CFD01210820FEF76BFD4FF497
:102560008060ADF8140003208DF8160018208DF857
:10257000170005A95348FEF7A1FA4FF40060ADF823
:10258000140004208DF8170005A94E48FEF796FAAE
:1025900027208DF8000003208DF8010001208DF820
:1025A00002008DF803006846FDF797FF01940020B4
:1025B000ADF80800ADF80A00ADF80C00ADF8100059
:1025C0000C20ADF80E0001A93F48FFF7E8FC0122FE
:1025D00040F225513C48FFF77AFD01213A48FFF7C8
:1025E0006AFD06B010BD0CE010F8012B324B1B1D2C
:1025F0001A8000BF304A128802F04002002AF9D047
:10260000491E02780D2A02D00278002AECD17047C8
:102610000CE010F8012B2A4B1B1D1A8000BF284A22
:10262000128802F04002002AF9D0491E02780D2AD1
:1026300002D00278002AECD170470CE010F8012B90
:10264000214B1B1D1A8000BF1F4A128802F0400256
:10265000002AF9D0491E0029F0D1704710B540F288
:1026600025511548FFF718FE30B11348FFF794FDC8
:10267000C4B2204601F01EFF10BD10B540F2255136
:102680000F48FFF709FE30B10D48FFF785FDC4B2D2
:10269000204601F053FA10BD10B540F225510A480A
:1026A000FFF7FAFD30B10848FFF776FDC4B22046C7
:1026B00001F0D6FA10BD00000038014000080140CA
:1026C00000440040000C014000480040F0B50A46BC
:1026D00002F11001077890F801C047EA0C273FB2D9
:1026E0004F8387780F77C7787FB23C01077907F06F
:1026F0000F0344EA0307CF8347797FB23E0107798E
:102700003D1146EA05070F8487797FB281F8227070
:10271000F0BD014629B14A681AB18A680AB1CA688F
:1027200012B94FF0FF3000E0002070472DE9F04172
:1027300005460F4690461C462046FFF7EAFF064630
:102740007EB9A078012801D045F080056078434625
:102750003A462946D4F804C0E04706460EB16FF069
:1027600003063046BDE8F08110B50A4602F11001BB
:102770000378447843EA04230B808378C47843EADF
:1027800004231BB24B800379447943EA04231BB230
:102790008B808379C47943EA0423CB80037A447A1B
:1027A00043EA04231BB20B81837AC47A43EA0423ED
:1027B0001BB24B81037B447B43EA04231BB28B8116
:1027C000837BC47B43EA04231BB2CB81037C447C20
:1027D00043EA04231BB20B82837CC47C43EA0423B8
:1027E0001BB24B82037D447D43EA04231BB28B82E0
:1027F000837DC47D43EA04231BB2CB82437E0B76E8
:1028000010BD70B588B0044688261C2101A801F0CF
:10281000B6FF23461A2201A93046FFF787FF054677
:1028200085B9214601A8FFF79FFFE126234607222D
:1028300001A93046FFF77AFF05461DB9214601A8D8
:10284000FFF744FF284608B070BD70B5044601206C
:1028500009E0255C0126C6EB40068D55155C01F8A4
:102860001050451CE8B29842F3DB70BD2DE9F047EB
:1028700086B00546884614461E460A2C00DD0A240A
:102880003046FFF746FF8146B9F1000F37D18DB3CF
:10289000B8F1000F33D074B398F800008DF804003D
:1028A000B078012809D0002705E0E85D00F07F003E
:1028B000E855781CC7B2A742F7DB012C0BDD234695
:1028C000424601A92846FFF7C0FF0120C0EB4400A3
:1028D0001FFA80FA00E0A24629787078534601AAD0
:1028E000D6F808C0E0478146B9F1000F09D06FF073
:1028F000030906E003E0FFE76FF0020901E04FF093
:10290000FF39484606B0BDE8F0877CB50446E020B4
:102910000190B62000902046FFF7FBFE05464DB91A
:1029200023460122694601A8FFF7A0FF05460220C1
:10293000E168884728467CBDF8B504460526002096
:102940000090762060700120A070FE486060FE4814
:10295000A060FE48E0602046FFF7DBFE054625BB91
:102960001DE0234601226946D020FFF7DFFE054621
:1029700085B99DF8000060280CD19DF800002070FA
:102980002046FFF7C2FF05461DB92046FFF739FF75
:10299000054606E00120E1688847701EC6B2002E99
:1029A000DFD100BF0EB96FF001052846F8BD0B79E5
:1029B000027863F3471202707047CB78027863F3B2
:1029C0008402027070472DE9FC4104460F4615460B
:1029D000F52001902B46012269469DF80400FFF77F
:1029E000A5FE0646A6B904F0080018B139466846A7
:1029F000FFF7E3FF04F0100018B139466846FFF70F
:102A0000D6FF2B460122694601A8FFF72FFF064695
:102A10003046BDE8FC810246002002EA01030BB10A
:102A2000012000E0002070474B78027863F34712E2
:102A3000027070470B78027863F38402027070476B
:102A40002DE9FC4104460F461546F42001902B4623
:102A5000012269469DF80400FFF768FE0646A6B904
:102A600004F0010018B139466846FFF7E3FF04F0AF
:102A7000020018B139466846FFF7D6FF2B460122FF
:102A8000694601A8FFF7F2FE06463046BDE8FC8124
:102A9000FEB505460E46F2200090A87800F007002B
:102AA00002903346012202A96846FFF7DFFE044682
:102AB0008CB9F42000903346012201A99DF8000052
:102AC000FFF734FE044634B93346012201A96846B3
:102AD000FFF7CCFE04462046FEBD2DE9F04104463A
:102AE0000D461646012704F0040020B13146284661
:102AF000FFF7CEFF074604F0030028B1324629460F
:102B00002046FFF79DFF07463846BDE8F08170B5C7
:102B100004460D462A4621461F20FFF7DEFF0646E3
:102B20002EB92A4621461F20FFF74DFF06463046A4
:102B300070BD027802F007028A708278C2F38202C6
:102B40000A70827852094A70C278C2F38202CA704F
:102B5000C27852090A7170473EB5044623460422E2
:102B600002A9F220FFF7E2FD05466DB9694602A809
:102B7000FFF7DFFF2046FFF7C8FE054625B92146CF
:102B80006846FFF7C4FF054628463EBD70B50446BB
:102B90000D462846FFF7BDFD064656B92B460122D5
:102BA0002146F420FFF7C2FD0646207800F003001E
:102BB0002070304670BDF8B506460C462046FFF73B
:102BC000A8FD054635BB21466846FFF7DFFF0546F1
:102BD00035B99DF8000018B12046FFF7BDFF054646
:102BE000C5B931460720FFF716FF30B1224604F180
:102BF00038013046FFF771FF05465DB931461820B0
:102C0000FFF709FF30B1224604F138013046FFF7E3
:102C1000DAFE05462846F8BD38B505462846FFF7D2
:102C200078FD044664B92B4604226946F220FFF77A
:102C30007DFD044624B905F138016846FFF779FFA8
:102C4000204638BD7CB506460C46F420019023464C
:102C5000012269469DF80400FFF768FD05465DB94D
:102C60009DF8000066F301000090234601226946AA
:102C700001A8FFF7FBFD054628467CBDF8B50646D2
:102C80000D462846FFF745FD044694B92946684697
:102C9000FFF77CFF044634B99DF8000018B12846C0
:102CA000FFF75AFF044624B929463046FFF7CAFF0A
:102CB00004462046F8BD2DE9F04F95B083468A467C
:102CC00000210E460F462248CDE91210DAF8240002
:102CD00002F0FBFD00221F4BCDE9060103F082F854
:102CE000CDE91001BAF9200002F0EFFD00221A4BE5
:102CF000CDE9000102F026FCCDE90201DDE9102357
:102D000002F04AFECDE90601BAF91E0002F0DDFD2F
:102D10000022124BCDE9020102F03EFECDE9040192
:102D2000DDE9062302F052FBCDE90E01DBF80800D5
:102D300002F0E2FDCDE90601DDE90E2303F052F8D1
:102D40000EE00000A1380008813800089B2300082D
:102D50000000594000C0F2400000D0400000504048
:102D6000CDE90C01BAF91A0002F0AFFD0022FE4BCA
:102D7000CDE9060102F0E6FBCDE90A019AF81C0054
:102D800002F0BAFD0022F94BCDE9020102F0DAFBB4
:102D9000CDE90401DDE9102302F0FEFD0022F44B31
:102DA000CDE9060102F012FBCDE908019AF92200F3
:102DB00002F08BFD0022ED4BCDE9000102F0C2FBD9
:102DC000CDE90201DDE9102302F0E6FDCDE90401C1
:102DD000DDE9082302F0E0FD0022E54BCDE9060124
:102DE00002F0F4FA8046894642464B46DDE9080186
:102DF00002F0D2FDCDE90601DDE90A23DDE90C018F
:102E000002F0CAFDCDE90401DDE9062302F0C4FDAC
:102E1000804689469AF8180002F06EFD42464B46FD
:102E2000CDE9000102F0B8FD0022D24BCDE902014C
:102E300002F088FB0022CE4BCDE9040102F0E0FE57
:102E400042464B46CDE9060102F0A6FD04460D467A
:102E500020462946DDE9122302F09CFE02D2DDE97C
:102E6000124508E032463B462046294602F058FD0E
:102E700001D234463D462046294615B0BDE8F08FC4
:102E80002DE9F04F8FB083468A464FF00008DFF8F7
:102E9000E8920021B948CDE90810DAF8240002F0E0
:102EA00014FD00224FF08043CDE9040102F04AFBFB
:102EB0000022B34BCDE9060102F094FF06460F460F
:102EC000BAF9100002F001FD32463B46CDE904019B
:102ED0003046394602F060FDCDE90201DDE9042308
:102EE00002F05AFD0022A74BCDE9060102F02AFBB1
:102EF000CDE90C01BAF90E0002F0E7FC32463B4680
:102F0000CDE9020102F048FD00224FF08043CDE9F7
:102F1000040102F041FDCDE90601DDE90C2302F0D8
:102F200055FACDE90C01BAF90C0002F0CEFC0022F2
:102F30008D4BCDE9020102F02FFD0022924BCDE92D
:102F40000601DDE90C0102F0FDFACDE90401DDE93D
:102F5000062302F03BFACDE90C01BAF90A0002F0AF
:102F6000B4FC32463B46CDE9020102F015FD324683
:102F70003B46CDE9040102F00FFD00227D4BCDE977
:102F8000060102F0DFFACDE90A01BAF9080002F001
:102F90009CFC32463B46CDE9020102F0FDFCCDE946
:102FA0000401DDE90A2302F011FA0022714BCDE998
:102FB000060102F0C7FA06460F46BAF8060002F00C
:102FC0009BFC00226F4BCDE906013046394602F0EA
:102FD000B9FA0022664BCDE9020102F0F7F9CDE91A
:102FE0000401DDE9062302F0D7FC06460F46002265
:102FF00013463046394602F0FDFB79D0DBF800007D
:1030000002F07AFC0022614BCDE9060102F0F8FDE6
:1030100004460D4600225E4BDDE90C0102F092FAF7
:1030200022462B46CDE9020102F0EAFD0022594B6F
:10303000CDE9040102F0B0FC32463B46CDE9060181
:1030400002F080FA04460D46BAF9160002F03DFC83
:1030500022462B46CDE9020102F09EFC22462B4679
:10306000CDE9040102F098FC00224B4BCDE90601AA
:1030700002F068FA06460F46BAF9140002F025FC81
:1030800022462B46CDE9040102F086FC00223D4B8E
:10309000CDE9060102F056FACDE90C01BAF91200A9
:1030A00002F013FCCDE9020130463946DDE90C237C
:1030B00002F08CF9CDE90001DDE9022302F086F986
:1030C0000022364BCDE9040102F03CFA22462B46A1
:1030D000CDE9060102F07AF904460D4642464B4618
:1030E0002046294602F01CFC03D244464D460CE023
:1030F00009E020462946DDE9082302F04BFD04D211
:10310000DDE9084501E044464D46204629460FB01A
:10311000BDE8F08F2DE9F04F8BB083468A46002141
:103120001F48CDE908101F48CDE90610BAF8000085
:1031300002F0E2FB00221C4BCDE9000102F002FA92
:10314000CDE90401DBF8040002F0D6FB0022174BA6
:10315000CDE9000102F0F6F9CDE90201DDE9042331
:1031600002F040FE804623E00000F0400000904165
:103170000000F03F00002041004CDD4000DBFA4041
:103180000040EF400000E0400000104000003041EF
:103190000000B040006AB8400000E041000030404C
:1031A000000044C000405540000090400000D04066
:1031B0008946BAF9020002F088FB42464B46CDE947
:1031C000040102F0E9FB80468946BAF8000002F0EB
:1031D00093FB00226C4BCDE9000102F0B3F9CDE97D
:1031E0000401DBF8040002F087FB00224FF0824369
:1031F000CDE9000102F0A6F9CDE90201DDE90423E1
:1032000002F0F0FD06460F46BAF9040002F05DFB3D
:1032100032463B46CDE904013046394602F0BCFB5C
:10322000CDE90201DDE9042302F0B6FB06460F46B4
:1032300032463B464046494602F0C8F8CDE9040113
:1032400002F014FBCAF8240032463B464046494689
:1032500002F0BCF800224D4BCDE9040102F072F9F6
:1032600004460D4620462946DDE9082302F058FBB6
:1032700002D2DDE9084508E020462946DDE90623BB
:1032800002F088FC01D2DDE90645204629460BB054
:10329000BDE8F08F2DE9F04105460E4614461F4665
:1032A0004FF0000826B31CB317B30021A160E16002
:1032B000216061602161616105F0070028B1394634
:1032C0003046FFF727FFC4E9020105F0010028B1ED
:1032D00039463046FFF7D4FDC4E9000105F004008B
:1032E00040B139463046FFF7E6FCC4E9040101E08D
:1032F0004FF0FF384046BDE8F08130B505782B032C
:1033000045782A0185782C0943EA020525430D609A
:10331000C5782B0305792A0145792C0943EA020572
:1033200025434D6085792A02C37943EA02058D6001
:1033300030BDF0B585B007460D4614460020039019
:1033400004900090019002902046FFF7E2F90646B3
:10335000AEB9A5B12346082203A9F720FFF7E6F985
:10336000064676B9694603A8FFF7C7FF04F11003C4
:103370002A4669463846FFF78DFF064601E04FF0C2
:10338000FF36304605B0F0BD0000C0400000B4403C
:103390007047044601213A200155052084F8380081
:1033A00002213920015504213B20015501213C20F7
:1033B0000155012545F0020545F0040545F01005CD
:1033C00045F0080521462846FFF7F5FB2146032076
:1033D000FFF754FC13E04620E168884700F036FB15
:1033E00000F08CFB00F051FB00F0A2FB00F032FC7F
:1033F000224603490720FFF79CFF01F095F9EAE711
:103400009802002000BF00BF00BF00BF00BF00BF88
:1034100000BF00BF00BFFD48007838B90F2000BFD3
:103420000100A0F10102D0B2FAD100BF704708B587
:1034300001210420FDF7FEFD3020ADF8000014202E
:103440008DF8030003208DF802006946F048FDF76F
:1034500035FB08BD00B5EE481030006840F0200094
:10346000EB49103108600846006840F01000086021
:10347000FFF7C8FFE6480830006800F0200008B9F0
:10348000002000BDE2481430006840F02000E04910
:1034900014310860FFF7B6FFDD480830006800F01F
:1034A000200008B10020ECE7D9481430006840F053
:1034B0002000D74914310860FFF7A4FF0120E0E79E
:1034C00000B5D3481430006840F01000D0491431E2
:1034D0000860FFF797FFCE481430006840F02000E6
:1034E000CB4914310860FFF78DFFC94810300068E0
:1034F00040F01000C64910310860FFF783FFC44850
:103500001030006840F02000C14910310860FFF71A
:1035100079FF00BD00B5BE481430006840F01000CF
:10352000BB4914310860FFF76DFFB94814300068DB
:1035300040F02000B64914310860FFF763FFB4483B
:103540001030006840F01000B14910310860FFF7FA
:1035500059FFAF481430006840F01000AC491431F6
:103560000860FFF74FFF00BD00B5A94814300068A0
:1035700040F01000A64914310860FFF743FFA4484B
:103580001030006840F02000A14910310860FFF7BA
:1035900039FF9F481030006840F010009C491031FE
:1035A0000860FFF72FFF9A481430006840F01000C1
:1035B000974914310860FFF725FF00BD00B50023CF
:1035C00093481430006840F01000914914310860AD
:1035D000FFF718FF8E481030006840F020008C493B
:1035E00010310860FFF70EFF89481030006840F086
:1035F0001000874910310860FFF704FF07E0581CEE
:10360000C3B2322B03DDFFF75BFF012000BD804812
:103610000830006800F020000028F0D17C48143009
:10362000006840F010007A4914310860FFF7EAFEA4
:103630000020EBE710B5034608242BE07448143053
:10364000006840F01000724914310860FFF7DAFE9C
:1036500003F0800040B16E481030006840F0200058
:103660006B491031086007E069481430006840F089
:1036700020006749143108605806030EFFF7C2FEA8
:1036800063481030006840F0100061491031086054
:10369000FFF7B8FE2000A4F10101CCB2CED15C4806
:1036A0001430006840F0100059491431086010BD12
:1036B00030B504460825002355481030006840F016
:1036C00020005349103108601DE05806030E504891
:1036D0001430006840F010004D4914310860FFF7C5
:1036E00091FE4B481030006840F0100048491031FE
:1036F0000860FFF787FE46480830006800F02000A9
:1037000008B143F001032800A5F10101CDB2DCD1DD
:103710003F481430006840F010003D491431086003
:1037200014B1FFF7F7FE01E0FFF71EFF184630BDAA
:1037300070B504460D461646FFF78CFE6106080E6E
:10374000FFF778FFFFF73AFF18B1FFF7B9FE012046
:1037500070BD2846FFF76EFFFFF730FF3046FFF7DA
:1037600069FFFFF72BFFFFF7ABFE0020F0E770B516
:1037700004460D461646FFF76DFE6106080EFFF77C
:1037800059FFFFF71BFF18B1FFF79AFE012070BD2C
:103790002846FFF74FFFFFF711FFFFF75BFE012100
:1037A00001EB4401C8B2FFF745FFFFF707FF002018
:1037B000FFF77EFF3070FFF783FE0020E7E7F0B5EC
:1037C00005460E4617461C46FFF744FE6906080EDE
:1037D000FFF730FFFFF7F2FE18B1FFF771FE01208F
:1037E000F0BD3046FFF726FFFFF7E8FE05E014F8CE
:1037F000010BFFF71FFFFFF7E1FE3800A7F1010102
:103800008FB2F4D1FFF75CFE0020E9E7330000201F
:1038100000080140F0B506460F4614461D46FFF766
:1038200019FE7106080EFFF705FFFFF7C7FE18B176
:10383000FFF746FE0120F0BD3846FFF7FBFEFFF71D
:10384000BDFEFFF707FE012101EB4601C8B2FFF7FD
:10385000F1FEFFF7B3FE0DE0012C04D10020FFF7CD
:1038600027FF287003E00120FFF722FF28706D1C5E
:10387000601E84B2002CEFD1FFF722FE0020DAE7B1
:10388000F0B506460F4614461D4601200C49087047
:1038900023462A4639463046FFF791FF40B2F0BD35
:1038A000F0B506460F4614461D460120044908702F
:1038B00023462A4639463046FFF7ACFF40B2F0BDFA
:1038C000330000207FB505460C460121C802FDF7F4
:1038D000B1FB012140F60C00FDF7ACFBADF8085040
:1038E000ADF804400020ADF80600ADF80A0001A9CB
:1038F0005148FDF7D7FC012211464F48FEF749F821
:1039000019208DF8000003208DF8010000208DF8AB
:10391000020001208DF803006846FCF7DEFD01215E
:103920004548FEF71BF87FBD30B589B005460C460B
:1039300001210420FDF78BFB01211820FDF77AFB04
:103940004FF47070ADF8200003208DF8220018208D
:103950008DF8230008A93948FDF7B0F8ADF81850E4
:10396000ADF814400020ADF81A00ADF8160005A916
:103970003348FDF797FC6020ADF804000120ADF856
:1039800006000020ADF80A00ADF80C0001A92C4893
:10399000FDF707FD01A92A48FDF7C1FC01A9284848
:1039A000FDF797FD01A92648FDF748FD01212448B0
:1039B000FDF7E0FF08212248FEF700F90821204822
:1039C000FEF705F908211E48FEF70EF908211C48EC
:1039D000FEF713F901211A48FEF7C0F80121184833
:1039E000FDF7BCFF09B030BD10B501211248FEF74C
:1039F0007EFA68B101211048FEF78AFA1148006882
:103A0000401C1049086010480068401C0E490860BE
:103A10000C480068032804DB00F001FC0020094981
:103A200008600948006847F23051884202DD0020F2
:103A30000549086010BD0000002C0140000C014049
:103A400000080040340000203800002010B5E7488E
:103A50000078012810D1E6480068E64909888842C4
:103A60000ADCE54800784FF48772A2EB400081B28F
:103A7000E248FEF70FFA07E00020DC4908704FF437
:103A80008771DE48FEF706FA10BD10B5DC480078F5
:103A900001281AD14FF4FA61D848FEF7F7F9D9484E
:103AA000007801280BD1D848008800EBC0004FF601
:103AB000FF7202EA8001D148FEF7EAF91DE04FF4F7
:103AC0001661CE48FEF7E4F917E00021CB48FEF777
:103AD000DDF9CC48007801280BD1CB48008800EBF9
:103AE000C0004FF6FF7202EA8001C448FEF7D0F929
:103AF00003E00021C148FEF7CBF910BD10B5C14865
:103B0000007801280BD1C048008800EBC0004FF6B8
:103B1000FF7202EA8001B948FEF7BAF907E0B84837
:103B20000078012803D00021B448FEF7B1F910BD98
:103B300010B50421B548FEF76BFD10BD2DE9F0412D
:103B40000446B3480078052846D2DFE800F00311A8
:103B500019213400FD2C07D1AE48AD4909784454F1
:103B60000120AB49087002E00020A949087033E049
:103B7000A848A749097844540220A54908702BE0B9
:103B8000A448A349097844540320A149087023E0BC
:103B9000A0489F4909784454FC2C06D104209C4934
:103BA000087001209C49087004E0002098490870C2
:103BB0009949087010E09748954909784454FD2CBC
:103BC00003D102209449087002E000209249087055
:103BD00000208F49087000BF00BF8F48007802287E
:103BE00036D18C494A78897802EB012001F06DFECC
:103BF00005468A480CC8284601F0E8FB874A03C2FC
:103C000087490978491CC9B2854A1170084601F0F4
:103C100073FE07463A460B46804903C901F092FC01
:103C2000054600227F4B01F08DFC7F4A03C27C4891
:103C30000078092806DD0020794908700021774ABC
:103C40001160516000207449087072498870487092
:103C5000BDE8F08110B508217448FEF7EEFC10BDF8
:103C60002DE9F041044672480078072852D2DFE877
:103C700000F00412202E363E4600012C07D16D487C
:103C80006B490978445401206949087002E000201A
:103C9000674908703EE06748654909784454032C39
:103CA00003D102206249087002E0002060490870D8
:103CB00030E060485E4909784454042C03D1032065
:103CC0005B49087002E000205949087022E0594819
:103CD0005749097844540420554908701AE055485A
:103CE00053490978445405205149087012E051485D
:103CF0004F490978445406204D4908700AE04D4860
:103D00004B490978445400204949087002204A4927
:103D1000087000BF00BF48480078022864D14549B8
:103D20008A79497902EB012001F0CFFD0746002294
:103D3000424B01F007FC054641480CC8284601F0FB
:103D400045FB3F4A03C23B490A79C97802EB01208F
:103D500001F0BBFD07460022384B01F0F3FB05469E
:103D600038480CC8284601F031FB364A03C23648B1
:103D70000078401C344908700846007801F0BCFD0A
:103D800005462A460B462F4903C901F0DBFB0746CF
:103D90000022244B01F0D6FB2C4A03C22A480078AB
:103DA00001F0AAFD05462A460B46254903C901F044
:103DB000C9FB074600221B4B01F0C4FB244A03C287
:103DC00021480078092809DD00201F4908700021DA
:103DD0001B4A116051601B4A116051600020164956
:103DE0000870144988704870BDE8F081EE0000202A
:103DF00038000020E80000204000002000080040BB
:103E0000EF000020F0000020EC0000204100002026
:103E100098000020460000204500002058000020A7
:103E20004B0000200000F03F500000206000002008
:103E300099000020B002002069000020000024400A
:103E400088000020900000208000002070000020EA
:103E5000780000200D20FE49088000BFFC48001FAC
:103E6000008800F040000028F8D00A20F8490880B7
:103E700000BFF748001F008800F040000028F8D07D
:103E8000704770B50446012500E06D1C605D002898
:103E9000FBD1F049487008701BE00020EE49088013
:103EA00004212046FEF79FFBFFF7D4FF3220FEF7E8
:103EB00074FAEA480068844207D0E94800688442FE
:103EC00003D0E8480068844203D142F21070FEF744
:103ED00064FA204600F003F80128DED170BD2DE918
:103EE000F04106460027002501E0681CC5B2705D60
:103EF0000028FAD1002401E0601CC4B2305D20B17A
:103F0000305DD449095D8842F6D0601CA84201D0DA
:103F1000002734E02FE0CF48405D4F2804D1CD4842
:103F2000284440784B2803D0CA48405D3E2801D140
:103F300001271EE0EFB9681CC7490988884218D1DB
:103F400013E0C448005D6C280DD1C248204440787D
:103F5000692808D1BF482044007B762803D1C04897
:103F60000068FFF78EFF601CC4B2BB480088844223
:103F7000E7DB681CC5B2B84800888542CBDB384611
:103F8000BDE8F08170B504460A46002123460121B0
:103F900004E00A2593FBF5F34D1CE9B20A2593FBD7
:103FA000F5F5002DF5DC084623460D2555540A2568
:103FB0005618757000255618B5700DE00A2593FB4C
:103FC000F5F605FB16353035561806F8015C0A255E
:103FD00093FBF5F34D1EE9B20029EFDC70BD2DE92E
:103FE000F04F89B081464FF0000B002401E0601CC7
:103FF000C4B219F804000028F9D182462CE0601EF2
:1040000001F063FC07463A460B460020964900F053
:10401000A9FCCDE9000119F80A10A1F1300001F066
:1040200054FC0546DDE9002301F0B6FCCDE90401AE
:10403000584601F04AFCCDE90201DDE9042301F014
:10404000C5F9CDE9060101F011FC8346601EC4B23A
:104050000AF1010000F0FF0A002CD0D1584609B047
:10406000BDE8F08F2DE9F04F85B0074688469146B0
:104070009A460024002004908346504601F03CFC00
:1040800002460B46CDE900010020774900F06AFCAA
:104090003A464346CDE9020101F07EFC05460E4654
:1040A000012409E00022704B2846314601F04AFA0B
:1040B00005460E46601CC4B22846314601F0D6FBC8
:1040C0000A2190FBF1F00028ECDC544502DC0AF1F7
:1040D0000100C4B2504601F00FFC02460B46CDE988
:1040E00000010020604900F03DFC3A464346CDE91E
:1040F000020101F051FC05460E460D2009EB0401BA
:1041000048700A2009EB04018870002009EB0401C3
:10411000C8703FE0D34514DA2846314601F0A6FBCB
:104120000A2190FBF1F201FB1200303009F8040083
:1041300000224D4B2846314601F004FA05460E4652
:1041400021E0D34509D1049838B92E2009F804009C
:1041500001200490601CC4B216E02846314601F0EC
:1041600085FB0A2190FBF1F201FB1200303009EBD4
:10417000040101F8010C00223B4B2846314601F0B6
:10418000E1F905460E4600BF601EC4B20BF1010006
:1041900000F0FF0B002CBDDC584605B0BDE8F08FE9
:1041A00030B50546002400E0641C285D0028FBD1E2
:1041B0002E492046FFF7E6FE30BD10B50446082123
:1041C0002BA0FEF710FA2046FFF7EAFF27480B382E
:1041D000FFF757FE3220FEF7E0F804212046FEF7F5
:1041E00002FAFFF737FE3220FEF7D7F810BDFEB512
:1041F00005460E46144623466A4628463146FFF7D2
:1042000031FF6846FFF7D9FFFEBD3EB5044669465B
:104210002046FFF7B7FE6846FFF7CFFF3EBD2DE90A
:10422000F043C1B00024A14601A80219022312499B
:1042300003C9FFF717FF2044C4B22C222046611C9B
:10424000CCB201A90A5401A8021902230B4917E0B4
:10425000043801400801002030000020A8000020A0
:10426000AC000020A400002000002440BB0000207F
:1042700041540D0A0000000078000020700000206A
:1042800003C9FFF7EFFE2044C4B22C222046611C74
:10429000CCB201A90A54D6480022D64BD0E900710D
:1042A000384601F04FF9054601A8021902232846B5
:1042B000FFF7D8FE2044C4B22C222046611CCCB2A9
:1042C00001A90A5401A802190223CB4903C9FFF727
:1042D000C9FE2044C4B22C222046611CCCB201A9E4
:1042E0000A54C648006801F067FE054601A8021995
:1042F00002232846FFF7B6FE2044C4B201A8FFF708
:104300005CFF41B0BDE8F0832DE9FC410546002487
:104310000027002000900190B9490860C1E00C2FEF
:104320005CD005DC5FB1012F20D00B2F1DD13BE00D
:104330000D2F6BD06F2F7DD0832FF7D197E0002604
:1043400005E0285D0DF80600701CC6B2641C285DEF
:104350003A2801D0062EF4DB00200DF8060068464E
:10436000FFF73DFEA6490860012798E0285D742804
:1043700006D128194078772802D1A41C0B2712E017
:10438000285D682806D128194078772802D1A41C16
:104390000C2708E0285D672805D128194078772880
:1043A00001D1A41C0D277AE0002605E0285D95497F
:1043B0008855701CC6B2641C285D2C2801D0052EBF
:1043C000F4DB00208F4988550846FFF708FE8E4928
:1043D000088000208D4908606F2760E0285D742800
:1043E0000FD12819407872280BD1281980787528A8
:1043F00007D12819C078652803D1012084490870A5
:1044000002E0002082490870002748E0002605E00D
:10441000285D80498855701CC6B2641C285D2C2814
:1044200001D0052EF4DB00207A4988550846FFF7B5
:10443000D6FD00E003E07849088083272FE0285D5F
:1044400074280FD12819407872280BD12819807848
:10445000752807D12819C078652803D101206F4934
:10446000087002E000206D490870002717E0285D01
:1044700074280FD12819407872280BD12819807818
:10448000752807D12819C078652803D1012064490F
:10449000087002E0002062490870002700BF00BFDA
:1044A000641C60480088C0F30D00A0423FF737AF9E
:1044B000BDE8FC8110B504465B4801880088401CBB
:1044C000594A1080594844545948008806287AD2DD
:1044D000DFE800F00309131D27312B2C02D1012046
:1044E000534908806FE0492C03D1022050490880CD
:1044F00002E000204E49088065E0502C03D10320E3
:104500004B49088002E00020494908805BE0442CC8
:1045100003D104204649088002E000204449088075
:1045200051E02C2C03D105204149088002E00020F5
:104530003F49088047E03B48008800F4004078BBD2
:104540003848008800F48040C0B10A2C03D0002015
:104550003449088036E03348008840F4004031494F
:1045600008800020324908803248FFF7CDFE002045
:104570002C49088001203049087023E00D2C10D10F
:104580002848008801280CDD2648008840F4804037
:104590002449088000200988C1F30D01254A5054A0
:1045A00010E020480088C0F30D0022490C541D483B
:1045B0000088401C1B49088008460088C72801DD88
:1045C0000020088000BF00BF10BD10B51B48006868
:1045D000FFF757FC41F27070FDF7DFFE18480068E6
:1045E000FFF74FFC41F27070FDF7D7FE10BD0000E1
:1045F000980200200000594050000020F4000020E4
:10460000D4000020D8000020E8000020380000205E
:10461000EF000020E2000020EC000020EE0000206F
:10462000F0000020D0000020300000200801002011
:10463000C400002081030020D2000020A800002038
:10464000AC00002000B587B001214FF40170FCF7E9
:10465000F1FC4FF40040FCF751FC0220ADF80400DF
:1046600000208DF8070001A93F48FCF727FA3F48D2
:10467000FBF79CFF002002908DF80C008DF80D00D8
:104680004FF4602004900020059001208DF8180060
:1046900002A93648FBF7B1FF01213448FBF7D9FFE7
:1046A0003248FBF7F8FF00BF3048FBF7F9FF00285E
:1046B000FAD12E48FBF7FEFF00BF2C48FBF7FFFFA7
:1046C0000028FAD107B000BD10B504460723012227
:1046D00021462648FCF729F801212448FBF7F9FF79
:1046E00000BF02212148FCF765F90028F9D01F48D6
:1046F000FCF782F810BD2DE9F04107460C464FF05B
:1047000000080025002608E03846FFF7DDFF0544D5
:104710000520FDF742FE701CC6B2A642F4DBB5FBD5
:10472000F4F080B2BDE8F0812DE9F0474FF0000AC7
:104730000A210120FFF7DFFF8246504601F0DCF836
:1047400080464FF066320A4B01F026F906464FF0DC
:104750006632084B01F054FA044600F005FE0649A3
:104760000860BDE8F0870000000801400024014017
:1047700066665A3F66661A40F400002070474FF0A4
:10478000000200B5134694469646203922BFA0E8A1
:104790000C50A0E80C50B1F12001BFF4F7AF0907AD
:1047A00028BFA0E80C5048BF0CC05DF804EB89009E
:1047B00028BF40F8042B08BF704748BF20F8022BE1
:1047C00011F0804F18BF00F8012B704770477047F9
:1047D0007047704710B500F009F8006810BD10B5BB
:1047E000044600F003F8046010BD00000048704764
:1047F000840B002000487047840B00207546FFF7AB
:10480000F9FFAE4605006946534620F0070085468D
:1048100018B020B5FBF74AFEBDE820404FF0000677
:104820004FF000074FF000084FF0000B21F0070198
:10483000AC46ACE8C009ACE8C009ACE8C009ACE8DB
:10484000C0098D4670470446AFF300802046FBF751
:10485000B6FC490050EAC12018BF04204A0D18BF19
:1048600040F0010040F2FF72B2EB515F08BF40F030
:104870000200012808BF052070472DE9F0414F1EB6
:1048800000EBC7010446D1E9000115461E4637F08A
:1048900006020DD02A46334601F07EF87F1E04EB57
:1048A000C703D3E9002300F091FD37F00602F1D1F0
:1048B000022F25D0042F13D0062F18BFBDE8F0819A
:1048C0002A46334601F068F8D4E90A2300F07EFD59
:1048D0002A46334601F060F8D4E9082300F076FD5B
:1048E0002A46334601F058F8D4E9062300F06EFD5D
:1048F0002A46334601F050F8D4E9042300F066FD5F
:104900002A46334601F048F8D4E9022300F05EFD60
:104910002A46334601F040F8D4E90023BDE8F041CF
:1049200000F054BD002213461046014900F00ABEB3
:104930000000F03F00F04ABD002213461046114629
:1049400000F000BE40F2013200204FF0E04101F0E3
:10495000DBBB0000024A0020110701F0D5BB0000BC
:1049600001FDFFFF2DE9F04D16460F4694B01C46A1
:1049700021F0004123F00042002814BF4FF0010C49
:104980004FF0000C0CEB470CFE4B0CEB03054FEA11
:10499000630C65452BD3350018BF012505EB440595
:1049A0001D44F94B9D4222D3F84B52EA060C02D02B
:1049B0009F4205D148B914B000201946BDE8F08DDA
:1049C000002808BF4FF0000C01D04FF0010C0CEB99
:1049D000470313F5001F0AD8002E14BF4FF0010C37
:1049E0004FF0000C0CEB440313F5001F07D914B073
:1049F000324623463946BDE8F04DFFF79BBFDFF84E
:104A000090834FF0000A002FB8BF424523DAE14BF4
:104A10009A42A8BF4FF0020A1DDADC4B93421ADC1F
:104A2000DD4B03EB2253142B08DDC3F1340C26FAC3
:104A30000CF303FA0CFCB4450DD108E05EB9C3F1E8
:104A4000140C22FA0CF303FA0CFC944503D103F086
:104A50000103C3F1020A51EA00031BD1002C19DA49
:104A6000002F18BFBAF1020F02D0BAF1010F07D020
:104A70000220FFF7B4FE14B0BDE8F04DFFF752BFBF
:104A80000220FFF7ACFEFFF74DFF14B081F00041AC
:104A9000BDE8F08D330070D1424525D107F1804249
:104AA00012F5801201BF00280020B84914B008BFD9
:104AB000BDE8F08DB548884207DC002CA1BF184640
:104AC000214614B0BDE8F08D07E0002CBFBF1846AA
:104AD00084F0004114B0BDE8F08DB0497944D1E9CB
:104AE000000114B0BDE8F08DDFF8A0C262452AD104
:104AF000002C24DA39B1414517D1002804BF002029
:104B000002461CD106E040B10220FFF768FEFFF725
:104B100019FF0A46394600F0D7BA9D4A394614B003
:104B2000002062F31E01BDE8F08D08DA14B03B46A8
:104B3000BDE8F04D02460020614600F003BD14B010
:104B40003946BDE8F08D414517DAB4F1804F0CD0FD
:104B5000A4F10053B3F1FF530FD13B1E0DDB14B092
:104B60001946BDE8F04D00F0D9BB3B4614B00246F3
:104B7000BDE8F04D194600F00FBF050027F00043D7
:104B80003AD1E1B1414537D1002F06DD002CA1BF5C
:104B90000020414614B0BDE8F08D002F01DD002C4F
:104BA0001FDB002F16DA002C14DBBAF1010F4FF0D7
:104BB000000014BF76497A4914B0BDE8F08DBAF10F
:104BC000020F18BF002F0CD0BAF1010F09D1002F2E
:104BD00007DA0BE0002FB8BF002C0DDABAF1010F95
:104BE00004D0002014B00146BDE8F08D14B00020C0
:104BF0004FF00041BDE8F08D4FF0010808EBE77C75
:104C0000CDF814C05CEA0A0C0DD0DFF898C16245FB
:104C10007EDDDFF894C1654B624512DD8B420ADB15
:104C2000002C18DB23E00120FFF7D9FD14B0BDE80C
:104C3000F04DFFF781BE554A8A4202DC002C0ADCA7
:104C400015E0994202DA002C11DA04E04F4B994248
:104C500019DD002C0BDD0220FFF7C1FDFFF772FE0E
:104C60004B4A14B061F31E021146BDE8F08D0220DC
:104C7000FFF7B5FDFFF76EFE444A14B061F31E0264
:104C80001146BDE8F08D0022394601F0ABF8074629
:104C90000D466FF0010201F037FA4FF05532444BE8
:104CA00000F0AEFF3A462B4600F076FE0022414B64
:104CB00000F0A6FF80468B463A462B461046194622
:104CC00000F06AFE42465B4600F066FE88460E90A3
:104CD0004FF0C042384B3846294600F05DFE83460F
:104CE0000091364A344B41460E9800F055FE8046FE
:104CF0000191334A334B3846294600F04DFE424677
:104D0000019B01F06FF80D4602460B460C9000E047
:104D100011E05846009900F059FB002788465A4692
:104D20003846009B01F05EF82B460C9A00F068FFB5
:104D3000024600F079B90020B1F5801F07DA35226C
:104D40002846194601F0E0F905466FF0340000EB03
:104D50002150A0F2FF300190C1F3130040F07F61B9
:104D600041F04051029118498842D8BF4FF0000BE2
:104D700035DD16498142C8BF4FF0010B2FDC4FF0E3
:104D8000000B25E0FFFF1F00FFFF0F000000F03FBA
:104D90000000F07F0000404301FCFFFF40170000CF
:104DA0000000F0FF0000E0410000F043FFFFEF3F94
:104DB0005555D53F0000E03F4715F73FFE822B6574
:104DC00044DF5DF80BAE543E8E9803007AB60B00BC
:104DD0000198401C01900298A0F580100290FF48B5
:104DE0000299784400EBCB000991D0E900232846D2
:104DF0000B93129200F0F6FF00910A9028460B9B4D
:104E0000129A099900F0E2FA02460B460020F44992
:104E100000F098FBCDE90C010B46024600990A9878
:104E200000F0BAFD0690EF488846002778440299C2
:104E3000006810904FF0005040EA610000EB8B409A
:104E400000F5002102910B9B129A109800F0CAFF06
:104E50002A46099B00F0D4FE3A46434600F09CFDEA
:104E60000891129038464146029B109A00F094FD3A
:104E7000009B0A9A00F0C4FE089B129A00F0B2FF51
:104E8000DDE90C2300F088FD0B91069A1290434651
:104E90001046194600F080FD05460246D2480B46F2
:104EA0000A9106217844FFF7E8FC0A9B2A460891FC
:104EB00002901046194600F06FFD089B029A00F020
:104EC0006BFD05460991434638461946069A00F09F
:104ED0007DFA0B9B129A00F05FFD2A46099B00F0B9
:104EE00075FACDE908013A4643461046194600F0E6
:104EF00053FD0A910022BD4B009000F067FADDE9F6
:104F0000082300F063FA0D463A46B84B384600F0E5
:104F100069FF0A9B009A00F065FFDDE9082300F0B5
:104F20006FFECDE908013A462B461046414600F097
:104F300033FD00910A90DDE908014346069A00F02E
:104F40002BFD069088462B463A460B99129800F0A6
:104F500023FD4346069A00F039FA80460B46024686
:104F60000D9100990A9800F031FA00200F4605468D
:104F7000009B0A9A00F036FF42460D9B00F040FE6F
:104F800088460E904FF06042994B2846394600F013
:104F900003FD02910090974A954B41460E9800F010
:104FA000FBFC80460391944A944B2846394600F016
:104FB000F3FC4246039B00F009FA914A7A4402EB63
:104FC000CB03D3E9002300F001FA054607910198CD
:104FD00000F07BFC0C9003912A46079B02990098F5
:104FE00000F0F4F9874A7A4402EBCB03D3E90023BB
:104FF0009346019300F0EAF9039B0C9A00F0E6F95E
:10500000002788463846039B0C9A00F0EBFE5A4670
:10501000019B00F0E7FE029B009A00F0E3FE2A46A7
:10502000079B00F0EDFD02460020069005986C4DB0
:10503000AAF10103184301D1734D069000200B46DD
:1050400004903046214600F0A7FC82468B4623465A
:1050500030461946049A00F0C5FE3A46434600F031
:105060009BFC52465B4600F0B1F906468A463A463A
:1050700043462146049800F08FFC04460F46324612
:10508000534600F0A3F9614A8B46914221DBABEB1A
:10509000020353EA000210D122463B4600F0A2FE72
:1050A000804603915A4A5B4B3046514600F08EF9D8
:1050B0004246039B00F06EFD27D20220FFF78FFBD4
:1050C000FFF740FC0A46294614B062F31E01BDE812
:1050D000F08D514B2BF000429A4216D34F4A0BEB06
:1050E000020353EA000208D122463B4600F07AFE52
:1050F0003246534600F04EFD07D80220FFF76FFB03
:10510000FFF728FC0A462946DEE72BF00040444919
:10511000444A01EB20514FF00008824223DA481C38
:105120004FF4801121FA00F058443F4AC0F30A516D
:105130007A443E4BA1F2FF31CB4020EA0303C0F397
:10514000130040F4801CC1F1140012682CFA00F81E
:10515000BBF1000FB8BFC8F100082046394600F087
:1051600041FE04460F4622463B463046514600F07B
:105170002DF94FF0000B5A462D4B5846039100F085
:105180000BFC00910A902B4A2B4B5846039900F0D8
:1051900003FC0491029022463B465846039900F0D6
:1051A00021FE3246534600F02BFD244A244B00F0EA
:1051B000F3FB049B029A00F009F907468A46009B1C
:1051C0000A9A00F003F904460E46009B0A9A00F082
:1051D00009FE3A46534600F013FD33E0B2130000D7
:1051E0000000F03FF0130000201300000000084012
:1051F00009C7EE3FFD033ADCF5015B14E02F3EBE2C
:10520000F8110000BE1100000000F0BF0000904047
:10521000FE822B654715973C00CC904000346F3FD1
:1052200001FCFFFF0000E03FEC100000FFFF0F005B
:10523000432EE63F396CA80C615C20BEEF39FAFEC4
:10524000422EE63F0746224633460F911046194646
:1052500000F0A2FB834602462E488A460B460521F3
:105260007844FFF70AFB5A46534600F095FB224666
:10527000334600F0C5FC82468B463A46204631460E
:105280000F9B00F089FB3A460F9B00F09FF80F46FA
:105290000A9000224FF080435046594600F0A2FD8C
:1052A0000391009052465B462046314600F074FB65
:1052B000039B009A00F046F93B460A9A00F092FDE3
:1052C0002246334600F08EFD0022134B00F098FC7E
:1052D0000E46044601EB08510815002810DC424632
:1052E0002046314600F010FFFFF7B3FA042808BF4C
:1052F000FFF730FB42462046314600F005FF0446EA
:1053000006980B4614B022462946BDE8F04D00F041
:1053100043BB0000940F00000000F03F2DE9F04176
:1053200006460F4600F078FC04000D4618BF012029
:10533000284320F00040C0F17F6000F1E040C00F42
:105340000ED0301C18BF0120384320F00040C0F1BF
:105350007F6000F1E040C00F04BF0120FFF73FFA7B
:1053600020462946BDE8F08121F00042A2F16052BA
:10537000B2F5801F01F0004328BFD2F17F6C0BD93A
:105380005FEA001C43EAC20242EB507018BF70474C
:1053900028BF20F001007047B2F5801FBCBF18463F
:1053A00070474FEA410C1CF5001F02D2084600F07E
:1053B00074BE70B500F09AFB00000089FFF7F6BFDD
:1053C0004FF00040A0F580007047000010B591EA52
:1053D000030F48BF83F0004300F10C85841A71EB82
:1053E000030C05D2121943EB0C03001B61EB0C01FB
:1053F000DFF824E14FEA1154A4EB135C1EEA430FDB
:1054000018BF9EEA445F73D023EA0E03DCF1200E3E
:1054100021EA045143F4801332D322FA0CFE10EB3C
:105420000E0023FA0CFE41EB0E01CCF1200E03FA24
:105430000EFE10EB0E0051F10001B1F5801FCCF112
:10544000200E32D201EB045112FA0EF2BDE81040E8
:1054500058BF7047401C38BF5FEA420218BF704710
:10546000002814BF20F0010041F100014FEA410380
:1054700013F5001F38BF7047A1F1C04100F084BB95
:10548000012A43EB0302ACF1200CDCF11F0E32BF0A
:105490004FF0000E23FA0CF310EB030041EB045124
:1054A000B4EB115FD0D0A1EB045101F58011490894
:1054B0005FEA300001EB04510ED350F1000038BF19
:1054C00012FA0EFE08D1BDE81040C9E7401C38BFF3
:1054D0005FEA4202CAD1C3E7BDE810404FEA410388
:1054E00013F5001F38BF7047A1F1C04100F04CBB5D
:1054F0009EEA445F08D011EA5E0FBDE8104004BF89
:1055000001F0004100207047BDE8104070B500F088
:10551000EDFA00BF64FBBE3E0000E0FF02494FF021
:10552000000000F0BFBD00BF0000F87F491058BF69
:10553000C1F140415B1058BFC3F140438B42EFF3D0
:10554000008070472DE9C04130B4DFF8A0C23CEACA
:10555000111418BF3CEA131400F0EC8081EA030533
:105560001CEA111444EAD57418BF1CEA131500F0A4
:10557000C780A4EB05044FF0004545EAC12145EA88
:10558000C32341EA505143EA525304F17F749942D4
:1055900004F500344FEAC0204FEAC22208BF90420F
:1055A00000F09C804FEA13650FF24016765D4FEADB
:1055B000134506FB05F7C7F1807706FB07F74FEAAF
:1055C000D737A7FB03687642C8F58038A7FB06CE1D
:1055D00038BFA8F1010807FB08E64FF0000EA6FB54
:1055E000028CE6FB03CEDCF1000CCEF1004E38BF9E
:1055F000AEF1010EA6FB0C584FF000074FF000056E
:10560000E6FB0E87A1FB08C6A0FB07CE16EB0E0635
:1056100045F10005E1FB076515F1E04E7EBFA4F5FD
:1056200080345FEA46066D4116F1800745F10005BA
:105630004FEA17274FEA066647EA0567A6F1DE46F6
:10564000B6F1805F4FEA15251FD9384624F0010CCA
:1056500005EBC471BCF1FE6F01EB0C1102D8F0BC7C
:10566000BDE8008124425CBF01F5801E9EEAC47F34
:1056700002D4F0BCBDE80081244238D4F0BCA1F1D2
:10568000C041BDE8004100F07FBA4FEAD22242EAB1
:1056900043524FEAD323A7FB02864FEAD02040EAC9
:1056A000415007FB03661EEA0E0F4FEAD12105FBAE
:1056B000026658BFA6EB0056B6EB00564FEA520EF4
:1056C0004EEAC37E18EB0E0E56EB530EBDD518EB0B
:1056D00002085E417F1C55F10005B6E74FF48015C6
:1056E0004FF000074FF000064FF00008ADE7F0BCA8
:1056F0004FF0000001F1C04101F00041BDE8008120
:1057000011EA0C1F0CEA131500D00CE013EA0C1F71
:1057100000F025804FF00000F0BC81EA030101F0A9
:105720000041BDE80081F0BCBDE8004181EA030111
:1057300000F02ABAF0BCBDE8004170B500F0D6F91F
:10574000097EFC3E00F007B881EA03014FF000003B
:1057500001F00041704781EA030100F015BAF0BC86
:10576000BDE800414FF0000021497047FFFDFBF903
:10577000F7F5F4F2F0EEEDEBE9E8E6E4E3E1E0DE84
:10578000DDDBDAD8D7D5D4D3D1D0CFCDCCCBCAC8F6
:10579000C7C6C5C4C2C1C0BFBEBDBCBBBAB9B8B71D
:1057A000B6B5B4B3B2B1B0AFAEADACABAAA9A8A810
:1057B000A7A6A5A4A3A3A2A1A09F9F9E9D9C9C9BDE
:1057C0009A99999897979695959493939291919089
:1057D0008F8F8E8E8D8C8C8B8B8A8989888887871A
:1057E0008685858484838382828181800000FF078F
:1057F0000000F87F51EA030C17D41CF5801F58BF36
:10580000BCF5801F00F10680994218BF704708BFA1
:105810009042704707D711F5801F58BF13F5801FBE
:1058200019D499427047894270471CF5801F08D5EA
:10583000BCF5801FF7D58B4218BF704708BF824266
:1058400070474FF4001C1CEB410F38BF1CEB430F9B
:1058500001D28B42704770B500F048F9922449009C
:105860004FF000514FF08053FFF760BE4FEA410305
:105870004FEA5353A3F58063D3F11E03C8BFD3F19E
:10588000210C0CDD4FF0004242EAC12242EA5052A4
:1058900032FA03FC8CEAE17CACEBE1707047102B30
:1058A000C4BF0020704703F5787CBCF1FF3F04D0F3
:1058B0006FF0004282EA2100704770B500F016F9DF
:1058C0004992248000207047F2E710F0004248BF60
:1058D0004042B0FA80F310FA03F10AD0C3F11D037D
:1058E00003F580634FEA415002EB035202EBD121F2
:1058F00070474FF000007047B0FA80F310FA03F1E0
:105900000AD0C3F11D0303F580634FEA41504FEA0B
:10591000035202EBD12170474FF0000070470000A6
:1059200051EA030C17D41CF5801F58BFBCF5801F2B
:1059300000F10680994218BF704708BF9042704737
:1059400007D711F5801F58BF13F5801F19D499424E
:105950007047894270471CF5801F08D5BCF5801F31
:10596000F7D58B4218BF704708BF824270474FF48B
:10597000001C1CEB410F38BF1CEB430F01D28B42C4
:10598000704770B500F0B2F8922449004FF0005112
:105990004FF08053FFF7CABDDFF848C170B51CEA6D
:1059A000111E1EBF1CEA13159EEA0C0F95EA0C0F80
:1059B00000F06F8081EA030423EA4C134EEAD47EA0
:1059C00021EA4C1141F4801143F48013AE44A1FB51
:1059D000024CA0FB0365AEF17F7E361955EB0C053A
:1059E000A1FB034C4CF10003A0FB021C16EB0C06C0
:1059F000654153F10003094218BF46F0010613F454
:105A0000007F0BD14FEA03314FEA0530340341EAFE
:105A1000155140EA16506FF003020AE04FEAC32125
:105A20004FEAC520F40241EA555140EA56506FF062
:105A3000020202EB2E4201EB025585EACE710AD03A
:105A40005FEA440C18BF24F0004450F1000041F11B
:105A5000000120EAD47040F2FE7C624500D270BDA5
:105A6000A84214BF4FF080444FF04044002E08BFBE
:105A70000024BEF1806FA8BFA1F1C041BDE8704015
:105A800080F282804FF0000001F1C04101F000413E
:105A900070479EEA0C0F0CEA131518BF95EA0C0F1D
:105AA00006D04FF0000081EA030E0EF0004170BDF9
:105AB00000F01CF88900013E00F007B800F009B8BA
:105AC0004FEA430C5FEA5C5C08D081EA030100F016
:105AD0005BB84FEA410C5FEA5C5CF6D14FF0000026
