:020000040800F2
:10000000701E0020490400084D0200084F0200083D
:1000100053020008570200085B02000800000000BD
:100020000000000000000000000000005F02000867
:100030006102000800000000630200086502000879
:1000400063040008630400086304000863040008F4
:1000500063040008630400086304000863040008E4
:1000600063040008630400086304000863040008D4
:1000700063040008630400086304000863040008C4
:1000800063040008630400086304000863040008B4
:1000900063040008630400086304000863040008A4
:1000A0006304000863040008630400086304000894
:1000B0006304000863040008630400086304000884
:1000C0006304000863040008630400086304000874
:1000D00063040008031F00086304000863040008A9
:1000E0006304000863040008630400086304000854
:1000F0006304000863040008630400086304000844
:100100006304000863040008630400086304000833
:100110006304000863040008630400086304000823
:100120006304000863040008630400086304000813
:1001300000F002F800F05AF80AA090E8000C82449F
:100140008344AAF10107DA4501D100F04FF8AFF27C
:10015000090EBAE80F0013F0010F18BFFB1A43F0A5
:1001600001031847303D0000503D00000A444FF0A5
:10017000000C10F8013B13F0070408BF10F8014B06
:100180001D1108BF10F8015B641E05D010F8016B4B
:10019000641E01F8016BF9D113F0080F1EBF10F8AF
:1001A000014BAD1C0C1B09D16D1E58BF01F801CBD2
:1001B000FAD505E014F8016B01F8016B6D1EF9D555
:1001C0009142D6D37047000000230024002500266A
:1001D000103A28BF78C1FBD8520728BF30C148BFAA
:1001E0000B6070471FB51FBD10B510BD01F0B4FE08
:1001F0001146FFF7F7FF00F009F801F0D2FE03B453
:10020000FFF7F2FF03BC01F005FE0000002401F03F
:1002100097FD4FF4A06000F0A1FF4FF4E13001F032
:1002200008FE00F033FF00F0DEFB0BE02046641C0C
:1002300000F001FB641C04480088C82802DB002091
:1002400001490880F2E7000044070020704700BF22
:10025000FEE700BFFEE700BFFEE700BFFEE7704716
:1002600070477047704700000CB500200190009067
:100270006C48006840F480306A49086000BF6948F3
:10028000006800F4003000900198401C0190009834
:1002900018B90198B0F5A06FF1D16248006800F478
:1002A000003010B10120009001E000200090009883
:1002B000012843D15C48006840F010005A490860AA
:1002C0000846006820F0030008600846006840F017
:1002D0000200086053484068524948600846406838
:1002E00048600846406840F48060486008464068BE
:1002F00020F47C1048600846406840F4E8104860EC
:100300000846006840F08070086000BF45480068FB
:1003100000F000700028F9D04248406820F0030047
:10032000404948600846406840F00200486000BF0D
:100330003C48406800F00C000828F9D10CBD10B50D
:10034000FFF792FF10BD10B53648006840F001007D
:1003500034490860084640683449084031494860DB
:1003600008460068324908402E490860084600687F
:1003700020F4802008600846406820F4FE004860B1
:100380004FF41F008860FFF7DAFF4FF00060294943
:10039000086010BD10B5002100200022214B5B68D1
:1003A00003F00C0121B1042906D0082928D107E067
:1003B000214B224C236027E01F4B204C236023E07D
:1003C000184B5B6803F47010164B5B6803F48032C3
:1003D000022303EB904022B9194B4343174C23608F
:1003E0000DE0104B5B6803F4003323B1144B43431F
:1003F000124C236003E0104B4343104C236003E096
:100400000D4B0E4C236000BF00BF064B5B68C3F36F
:1004100003130C4CE15C094B1B68CB40074C236079
:1004200010BD000000100240002002400000FFF854
:10043000FFFFF6FE08ED00E000127A000000002049
:1004400000093D0004000020094880470948004792
:10045000FEE7FEE7FEE7FEE7FEE7FEE7FEE7FEE774
:10046000FEE7FEE704480549054A064B70470000D1
:10047000470300083101000870180020701E00209A
:10048000701A0020701A00200D20F749088000BF64
:10049000F548001F008800F040000028F8D00A202E
:1004A000F149088000BFF048001F008800F04000BC
:1004B0000028F8D0704770B50446012500E06D1C97
:1004C000605D0028FBD1E949487008701BE00020FE
:1004D000E74908800421204601F0F7FCFFF7D4FF2C
:1004E000322001F06AFCE3480068844207D0E24809
:1004F0000068844203D0E1480068844203D142F29C
:10050000107001F05AFC204600F003F80128DED1FB
:1005100070BD2DE9F04106460027002501E0681C6A
:10052000C5B2705D0028FAD1002401E0601CC4B29D
:10053000305D20B1305DCD49095D8842F6D0601C48
:10054000A84201D0002734E02FE0C848405D4F2882
:1005500004D1C648284440784B2803D0C348405DA6
:100560003E2801D101271EE0EFB9681CC049098867
:10057000884218D113E0BD48005D6C280DD1BB48FE
:1005800020444078692808D1B8482044007B762868
:1005900003D1B9480068FFF78EFF601CC4B2B448AD
:1005A00000888442E7DB681CC5B2B14800888542F8
:1005B000CBDB3846BDE8F08170B504460A46002121
:1005C0002346012104E00A2593FBF5F34D1CE9B213
:1005D0000A2593FBF5F5002DF5DC084623460D258D
:1005E00055540A255618757000255618B5700DE03B
:1005F0000A2593FBF5F605FB16353035561806F837
:10060000015C0A2593FBF5F34D1EE9B20029EFDCEE
:1006100070BD2DE9F04F89B081464FF0000B0024EA
:1006200001E0601CC4B219F804000028F9D1824628
:100630002CE0601E02F0B7FC07463A460B4600204D
:100640008F4901F03DFDCDE9000119F80A10A1F133
:10065000300002F0A8FC0546DDE9002302F00AFDA7
:10066000CDE90401584602F09EFCCDE90201DDE926
:10067000042302F027FACDE9060102F037FC834695
:10068000601EC4B20AF1010000F0FF0A002CD0D1B4
:10069000584609B0BDE8F08F2DE9F04F85B0074608
:1006A000884691469A46002400200490834650468E
:1006B00002F090FC02460B46CDE900010020704993
:1006C00001F0FEFC3A464346CDE9020102F0D2FCBD
:1006D00005460E46012409E00022694B28463146B2
:1006E00002F0ACFA05460E46601CC4B228463146FC
:1006F00002F0FCFB0A2190FBF1F00028ECDC5046F4
:1007000002F068FC02460B46CDE9000100205C497E
:1007100001F0D6FC3A464346CDE9020102F0AAFCBC
:1007200005460E460D2009EB040148700A2009EB2E
:1007300004018870002009EB0401C8703FE0D34534
:1007400014DA2846314602F0D1FB0A2190FBF1F27F
:1007500001FB1200303009F804000022484B284603
:10076000314602F06BFA05460E4621E0D34509D129
:10077000049838B92E2009F8040001200490601C68
:10078000C4B216E02846314602F0B0FB0A2190FBC5
:10079000F1F201FB1200303009EB040101F8010C09
:1007A0000022374B2846314602F048FA05460E46ED
:1007B00000BF601EC4B20BF1010000F0FF0B002C63
:1007C000BDDC584605B0BDE8F08F30B505460024C5
:1007D00000E0641C285D0028FBD12A492046FFF771
:1007E000EBFE30BD10B50446082127A001F06DFBDB
:1007F0002046FFF7EAFF23480B38FFF75CFE4FF473
:10080000FA7001F0DAFA0421204601F05EFBFFF7EE
:100810003BFE322001F0D1FA10BDFEB505460E4672
:10082000144623466A4628463146FFF735FF684698
:10083000FFF7D8FFFEBD3EB5044669462046FFF7E8
:10084000BBFE6846FFF7CEFF3EBD2DE9FC410646E4
:10085000002400270020009001900D4908602EE040
:100860005FBB00251CE00000043801401010002090
:100870004407002020000020240000201C0000204D
:10088000000024403300002041540D0A0000000005
:100890004C000020305D0DF80500681CC5B2641CDA
:1008A000305D3A2801D0062DF4DB6846FFF7B1FE33
:1008B0005F490860781CC7B200BF00BF05E05D4813
:1008C0000088C0F30D00A042CADC00BFBDE8FC8177
:1008D00010B50446584801880088401C564A1080CC
:1008E000564844545648008806287AD2DFE800F07B
:1008F0000309131D27312B2C02D1012050490880F8
:100900006FE0492C03D102204D49088002E000200D
:100910004B49088065E0502C03D1032048490880EA
:1009200002E00020464908805BE0442C03D104200B
:100930004349088002E000204149088051E02C2C06
:1009400003D105203E49088002E000203C49088090
:1009500047E03848008800F4004070BB3548008804
:1009600000F48040B8B10A2C03D00020314908803F
:1009700036E03048008840F400402E490880314875
:10098000FFF763FF00202B4908802D4908800120D4
:100990002D49087024E00D2C10D12648008801282C
:1009A0000CDD2448008840F4804022490880002063
:1009B0000988C1F30D01234A505411E01D480088F5
:1009C000C0F30D001F490C541A480088401C1949F7
:1009D000088008460088B0F5006F01DB0020088021
:1009E00000BF00BF10BD10B518480068FFF763FDD9
:1009F00041F2707001F0E1F915480068FFF75BFD06
:100A000041F2707001F0D9F912A0FFF7EBFE154822
:100A10000068FFF7E7FE14480068FFF7E3FE13489D
:100A20000068FFF7DFFE09480068FFF7DBFE10BD36
:100A30004C00002048000020440700201010002037
:100A40003C000020100800204A0000202000002068
:100A500024000020313233343536373839313132E1
:100A6000330D0A0014000020180000201C00002094
:100A700070B504460120FD490860002511E0002002
:100A8000FA49091D0860E011F949C1F8BC01600686
:100A9000040E0120F549091D086001F06AF9681C7F
:100AA000C5B2082DEBDB70BD0022F04B1A600021AF
:100AB0000FE00022ED4B1B1D1A60C211EC4BC3F876
:100AC000BC214206100E0122E84B1B1D1A604A1C75
:100AD000D1B20829EDDB704700B58D20FFF7E4FFA8
:100AE0001420FFF7E1FFAF20FFF7DEFF00BD2DE987
:100AF000F05F80460E4692461D462846E91705EBF4
:100B00005171C1F3C70534464FF0000926E004F1E6
:100B1000B001C8B2FFF7C8FF08F00F00FFF7C4FF2D
:100B200008F0F00B4FEAEB710BEB1171091141F07A
:100B30001000FFF7B9FF002708E00A9901EB470111
:100B400011F80900FFF794FF781CC7B25745F4DB92
:100B5000601CC4B209F1010000F0FF097019A04245
:100B600001DD082CD3DB7019072832DD0024C6F123
:100B7000080000F0FF0926E004F1B001C8B2FFF759
:100B800093FF08F00F00FFF78FFF08F0F00B4FEA1C
:100B9000EB710BEB1171091141F01000FFF784FFAD
:100BA000002708E00A9901EB470111F80900FFF757
:100BB0005FFF781CC7B25745F4DB601CC4B209F173
:100BC000010000F0FF0970190838A04201DD082C6F
:100BD000D2DBBDE8F09F2DE9F04F8BB0824689460D
:100BE00016461F46DDF850B0CDF820B04FF0010892
:100BF00008E00A210898B0FBF1F0089008F1010024
:100C000000F0FF080A210898B0FBF1F00028F0D1AD
:100C1000B8F1010F38DDA8F1010002F0C4F9024675
:100C20000B46CDE900010020924901F049FACDE9D7
:100C3000020102F08BF90890002417E0002511E072
:100C40000A20BBFBF0F100FB11B08B4901EB001057
:100C5000022101FB0541405C04A901EB4501085557
:100C6000681CC5B2082DEBDB601CC4B2022CE5DBAE
:100C70000A20BBFBF0FB3B46324649465046CDF8C6
:100C800000B0FFF7A8FF16E0002412E000250CE0FA
:100C9000794800EB0B10022101FB0541405C04A9DF
:100CA00001EB45010855681CC5B2082DF0DB601C3E
:100CB000C4B2022CEADB3846F91707EB5171C1F3D5
:100CC000C7074C46002009902CE004F1B001C8B2DF
:100CD000FFF7EAFE08FB06A1491C01F00F00FFF731
:100CE000E3FE08FB06A1491C01F0F001CA170391BD
:100CF00001EB1271091141F01000FFF7D5FE00253C
:100D000008E004A901EB45020999505CFFF7B0FE29
:100D1000681CC5B2B542F4DB601CC4B20998401C23
:100D2000C0B2099009EB0700A04201DD082CCCDB22
:100D300009EB0700072839DD0024C9F10800C0B21B
:100D400009902CE004F1B001C8B2FFF7ADFE08FB3A
:100D500006A1491C01F00F00FFF7A6FE08FB06A143
:100D6000491C01F0F001CA17039101EB127109113E
:100D700041F01000FFF798FE002508E004A901EB00
:100D800045020999505CFFF773FE681CC5B2B54275
:100D9000F4DB601CC4B20998401CC0B2099009EB96
:100DA00007000838A04201DD082CCBDB0BB0BDE802
:100DB000F08F2DE9F04F85B00746884691461E46D4
:100DC0000E982038C0B204903046F11706EB5171EE
:100DD000C1F3C706002413E000250DE0274904985D
:100DE00001EB0010022101FB0541405C694601EB6B
:100DF00045010855681CC5B24D45EFDB601CC4B207
:100E0000B442E9DB44464FF0000A26E004F1B001A9
:100E1000C8B2FFF749FE07F00F00FFF745FE07F0E5
:100E2000F00B4FEAEB710BEB1171091141F010005F
:100E3000FFF73AFE002508E0694601EB450111F88D
:100E40000A00FFF715FE681CC5B24D45F4DB601CB7
:100E5000C4B20AF1010000F0FF0A08EB0600A0424C
:100E600001DD082CD2DB05B0BDE8F08FB081214256
:100E7000008021420000244008060020843700083A
:100E80002DE9F84304460E4617469846089D0FE0A4
:100E9000287843463A46314600902046FFF789FFBE
:100EA000E019C4B2802C02DBB01CC6B200246D1C59
:100EB00028780028ECD1BDE8F8832DE9F05F804662
:100EC0000E4692461D462846E91705EB5171C1F3BF
:100ED000C70534464FF0000926E004F1B001C8B25E
:100EE000FFF7E2FD08F00F00FFF7DEFD08F0F00B62
:100EF0004FEAEB710BEB1171091141F01000FFF794
:100F0000D3FD002708E00A9901EBC70111F8090099
:100F1000FFF7AEFD781CC7B25745F4DB601CC4B2C6
:100F200009F1010000F0FF097019A04201DD082C51
:100F3000D3DB7019072832DD0024C6F1080000F069
:100F4000FF0926E004F1B001C8B2FFF7ADFD08F0DB
:100F50000F00FFF7A9FD08F0F00B4FEAEB710BEB68
:100F60001171091141F01000FFF79EFD002708E004
:100F70000A9901EBC70111F80900FFF779FD781C08
:100F8000C7B25745F4DB601CC4B209F1010000F0A0
:100F9000FF0970190838A04201DD082CD2DBBDE83A
:100FA000F09F2DE9F04704460E4617469846354611
:100FB00020E005F1B001C8B2FFF776FD04F00F00A4
:100FC000FFF772FD04F0F00A4FEAEA710AEB1171C3
:100FD000091141F01000FFF767FDA14606E000206F
:100FE000FFF746FD09F1010000F0FF09B945F6DB06
:100FF000681CC5B24545DCDBBDE8F087F0B50446AA
:101000000D4616461F4604F12601C8B2FFF74CFDF7
:101010000020FFF749FD2846FFF746FD3846FFF759
:1010200043FD3046FFF740FD0020FFF73DFDFF2068
:10103000FFF73AFD2F20FFF737FDF0BDF0B506466C
:101040000C4615461F46A320FFF72EFDE106080EAD
:10105000FFF72AFDE906080EFFF726FD06F1290134
:10106000C8B2FFF721FD0020FFF71EFD2046FFF765
:101070001BFD3846FFF718FD2846FFF715FD082031
:10108000FFF712FD2F20FFF70FFDF0BD08B501217E
:10109000082000F0EDFB4FF43040ADF800000320D5
:1010A0008DF8020010208DF8030069462A4800F0F0
:1010B00023F9AE20FFF7F8FCD520FFF7F5FC502010
:1010C000FFF7F2FCA820FFF7EFFC3F20FFF7ECFC56
:1010D000D320FFF7E9FC0020FFF7E6FC4020FFF7F4
:1010E000E3FC8D20FFF7E0FC1420FFF7DDFC20205F
:1010F000FFF7DAFC0220FFF7D7FCA120FFF7D4FCB2
:10110000C820FFF7D1FCDA20FFF7CEFC1220FFF752
:10111000CBFC8120FFF7C8FCEF20FFF7C5FCD920EE
:10112000FFF7C2FCF120FFF7BFFCDB20FFF7BCFCA0
:101130003020FFF7B9FCA420FFF7B6FCA620FFF78C
:10114000B3FCAF20FFF7B0FC072380220021084644
:10115000FFF727FF08BD0000000C014031490143A3
:10116000314A1160704770B5002100230F22C47806
:1011700004B32D4C246804F4E064C4F5E064210A4F
:10118000C1F10403CA40447804FA03F1847814409E
:1011900021430901254C0678A155047804F01F0568
:1011A0000124AC4005786D11AD0005F1E025C5F8CE
:1011B000004109E0047804F01F050124AC401C4DF7
:1011C0000678761145F8264070BD1A4A0A40024357
:1011D000154B1B1F1A60704739B1134A121D126854
:1011E0000243114B1B1D1A6006E00F4A121D1268C4
:1011F00082430D4B1B1D1A607047042808D14FF025
:10120000E021096941F004014FF0E022116107E09B
:101210004FF0E021096921F004014FF0E022116153
:10122000704700000000FA050CED00E000E400E06B
:1012300080E100E080FFFF1F10B50446CC488442E7
:1012400008D10121042000F02DFB0021042000F032
:1012500029FB46E0C748844208D10121082000F05C
:1012600021FB0021082000F01DFB3AE0C248844227
:1012700008D10121102000F015FB0021102000F002
:1012800011FB2EE0BD48844208D10121202000F04E
:1012900009FB0021202000F005FB22E0B848844231
:1012A00008D10121402000F0FDFA0021402000F08B
:1012B000F9FA16E0B348844208D10121802000F0F9
:1012C000F1FA0021802000F0EDFA0AE0AE488442F5
:1012D00007D10121801500F0E5FA0021A01500F0EA
:1012E000E1FA10BD10B50121084600F0DBFA00213B
:1012F000012000F0D7FA10BD2DE9F041024600258B
:101300000026002000230024002791F803C00CF0E1
:101310000F0591F803C00CF0100CBCF1000F03D0C6
:1013200091F802C04CEA050591F800C0BCF1000F2D
:1013300031D0146800202BE04FF0010C0CFA00F3C0
:10134000B1F800C00CEA03069E4220D183004FF0A2
:101350000F0C0CFA03F7BC4305FA03FC4CEA040437
:1013600091F803C0BCF1280F06D14FF0010C0CFA24
:1013700000FCC2F814C00AE091F803C0BCF1480FA9
:1013800005D14FF0010C0CFA00FCC2F810C0401C53
:101390000828D1D31460B1F800C0BCF1FF0F34DDD0
:1013A000546800202EE000F1080C4FF0010808FA04
:1013B0000CF3B1F800C00CEA03069E4221D1830071
:1013C0004FF00F0C0CFA03F7BC4305FA03FC4CEA90
:1013D000040491F803C0BCF1280F05D100F1080CFA
:1013E00008FA0CF8C2F8148091F803C0BCF1480F59
:1013F00007D100F1080C4FF0010808FA0CF8C2F808
:101400001080401C0828CED35460BDE8F0814FF610
:10141000FF710180022181700421C1707047024672
:10142000002093680B400BB1012000E000207047C2
:101430000146886880B2704702460020D3680B409E
:101440000BB1012000E0002070470146C86880B25F
:10145000704701617047416170470AB1016100E066
:1014600041617047C16070474FF480320A43826126
:101470008161826182698269704702460020434B24
:1014800018684FF68073184040EA021008433F4B3B
:10149000186070473E49C8617047F0B50A4600239E
:1014A00000240021002500F00046B6F1004F02D1D3
:1014B000364EF16901E0354E7168C0F3034583B2E1
:1014C00000F44016B6F5401F08D121F070612F4E90
:1014D000766826F070662D4F7E6012E000F480166C
:1014E000B6F5801F06D1032606FA05F4A14341F0A4
:1014F000706106E0460D360103FA06F6B14341F08D
:10150000706122B1460D360103FA06F6314300F050
:101510000046B6F1004F02D11C4EF16101E01B4EB6
:101520007160F0BD30B500228B071C0F0F2303FA4A
:1015300004F2164B08338C1053F824309343134CA9
:1015400008348D1044F8253023468C1053F824308D
:101550008C07240F00FA04F423430C4C08348D103C
:1015600044F8253030BD0A49DC310860704700007E
:1015700000080140000C014000100140001401402F
:1015800000180140001C0140002001400000014003
:1015900000002042DF48006840F00100DD4908609B
:1015A00008464068DC490840DA4948600846006857
:1015B000DA490840D74908600846006820F48020CE
:1015C00008600846406820F4FE0048604FF41F00A1
:1015D00088607047CF49096821F48031CD4A116095
:1015E0001146096821F480211160B0F5803F03D0D5
:1015F000B0F5802F0ED106E0C649096841F480316C
:10160000C44A116007E0C349096841F4A021C14AF6
:10161000116000E000BF00BF704710B50146002216
:10162000002300204A11012A02D1BA4C236806E0A7
:10163000022A02D1B74C236A01E0B64C636A01F07A
:101640001F02012494401C400CB1012000E0002046
:1016500010BD38B5002000900024002500BF3120C7
:10166000FFF7DBFF05460098401C00900098B0F59E
:10167000A06F01D0002DF2D03120FFF7CEFF08B1CE
:10168000012400E00024204638BD01460020A14A84
:10169000106820F0F80040EAC10010607047A049CF
:1016A00008607047024600209A4B586820F47C106E
:1016B00042EA01031843974B5860704798490866FF
:1016C000704701460020934A506820F00300084309
:1016D000506070478F48406800F00C00704701462A
:1016E00000208C4A506820F0F0000843506070479A
:1016F00001460020874A506820F4E06008435060AB
:10170000704701460020834A506820F4605040EA48
:10171000C1005060704729B17E4A527A02437D4B26
:101720005A7204E07B4A527A82437A4B5A7270476B
:101730007B49D8310860704701460020754A5068DF
:1017400020F440400843506070470021714A203225
:101750001170704A82F82010012802D004280AD1A2
:1017600004E001216B4A2032117005E00521694A2D
:101770002032117000E000BF00BF70476949086067
:1017800070476449096A0143624A116270476549BA
:1017900044390860704730B500210022002400233E
:1017A0005C4D6D6805F00C0121B1042905D00829B4
:1017B00023D105E05C4D056022E05B4D05601FE034
:1017C000544D6D6805F47012524D6D6805F4803407
:1017D000022505EB92421CB9544D554305600BE0C0
:1017E0004C4D6D6805F400351DB1504D55430560F5
:1017F00002E04D4D5543056002E04B4D056000BFD2
:1018000000BF444D6D6805F0F0010909484D6B5C5F
:101810000568DD4045603F4D6D6805F4E061090AEB
:10182000434D6B5C4568DD4085603A4D6D6805F45D
:101830006051C90A3E4D6B5C4568DD40C560354D61
:101840006D6805F44041890B3A4D6B5CC568B5FB8A
:10185000F3F5056130BD29B12E4A526902432D4B83
:101860005A6104E02B4A526982432A4B5A617047FD
:1018700029B1284A92690243264B9A6104E0254A1D
:1018800092698243234B9A61704729B1214AD269F8
:101890000243204BDA6104E01E4AD26982431D4BA9
:1018A000DA61704729B11B4AD2680243194BDA60EA
:1018B00004E0184AD2688243164BDA60704729B1B7
:1018C000144A12690243134B1A6104E0114A126967
:1018D0008243104B1A6170471249403908607047C3
:1018E0000F49C86470470B49C87170470948406A7E
:1018F00040F0807007494862704701460020054A61
:1019000092680A400AB1012000E0002070470149B6
:1019100088727047001002400000FFF8FFFFF6FEDB
:10192000000042428004424200127A0000093D0059
:10193000280700203807002010B50446FB488442E1
:1019400009D101218803FFF7ADFF00214FF480404A
:10195000FFF7A8FF32E0F648844209D1012148048C
:10196000FFF7ADFF00214FF40030FFF7A8FF25E09F
:10197000F048844209D101218804FFF7A0FF00212B
:101980004FF48020FFF79BFF18E0EB48844209D119
:101990000121C804FFF793FF00214FF40020FFF757
:1019A0008EFF0BE0E548844208D101210805FFF7CE
:1019B00086FF00214FF48010FFF781FF10BD2DE955
:1019C000F04786B005460E460024A24600BFA14659
:1019D0000027B08900B100BF2F462C8A4CF6FF705B
:1019E0000440F08804432C82AC894EF6F310044086
:1019F000B08831890843718908430443AC81AC8ABB
:101A00004FF6FF400440B0890443AC8201A8FFF7C1
:101A1000C2FEC648874202D1DDF810A001E0DDF821
:101A20000CA0A88900F4004040B10AEBCA0000EB0A
:101A30000A1031684900B0FBF1F807E00AEBCA0070
:101A400000EB0A1031688900B0FBF1F86420B8FBA4
:101A5000F0F004012009642101FB1089A88900F439
:101A6000004040B1322000EBC900B0FBF1F000F0C3
:101A70000700044308E0322000EB09106421B0FBAA
:101A8000F1F000F00F0004432C8106B0BDE8F087B0
:101A90004FF41651016000218180C18001810C2129
:101AA000418100218181704710B502460020108AD3
:101AB0004FF2FF0318400B884C8823438C88234344
:101AC000CC8823431843108210BD0021018041803F
:101AD0008180C180704721B1828942F400528281A5
:101AE00004E082894DF6FF731A4082817047F0B599
:101AF0000346002400260025002040F66A17B9425C
:101B000000D100BF1846C1F3421401F01F0601279F
:101B100007FA06F5012C01D10C3004E0022C01D1AA
:101B2000103000E014301AB107682F43076002E05C
:101B30000768AF430760F0BD1AB1838A0B43838205
:101B400002E0838A8B4383827047028A4FF6F073E8
:101B50001A400282028A0A430282704782894FF247
:101B6000FF731A40828182890A438281704721B1C2
:101B7000828942F00202828104E082894FF6FD737D
:101B80001A4082817047028A4FF6DF731A40028240
:101B9000028A0A430282704721B1028A42F48042DB
:101BA000028204E0028A4BF6FF731A4002827047F9
:101BB000C1F308028280704701468888C0F308009C
:101BC0007047818941F0010181817047028BD2B257
:101BD0000283028B42EA012202837047028B02F4E5
:101BE0007F420283028B0A430283704721B1828ABB
:101BF00042F02002828204E0828A4FF6DF731A40AC
:101C00008282704721B1828A42F01002828204E00F
:101C1000828A4FF6EF731A408282704721B1828A1E
:101C200042F00802828204E0828A4FF6F7731A407B
:101C30008282704721B1828942F40042828103E0AE
:101C40008289C2F30E028281704721B1828A42F4F6
:101C50000062828204E0828A4FF2FF731A4082821D
:101C60007047828A4FF6FB731A408282828A0A4347
:101C70008282704721B1828A42F00202828204E0AD
:101C8000828A4FF6FD731A40828270470246002016
:101C9000B1F5007F00D100BF13880B400BB10120CC
:101CA00000E00020704701F40072B2F5007F00D11F
:101CB00000BFCA430280704770B50246002400236B
:101CC0000025002040F66A16B14200D100BFC1F3E2
:101CD000421501F01F03012606FA03F3012D02D17C
:101CE0009689334006E0022D02D1168A334001E086
:101CF000968A33400C12012606FA04F41688344002
:101D000013B10CB1012000E0002070BD10B500221D
:101D1000002340F66A14A14200D100BF0A12012438
:101D20009440A3B2DC43048010BD000000380140A1
:101D30000044004000480040004C0040005000407B
:101D400010B56FF00400FFF758FA2E4800682E49CE
:101D5000B0FBF1F02D4908700846007800EB400117
:101D6000C1EBC0104FF6FF7101EAC000284908809E
:101D700010BD0146254A12784A434FF0E0235A61CC
:101D800000229A611A46126942F001021A6100BFEC
:101D90004FF0E022106900F001021AB100F4803225
:101DA000002AF5D04FF0E022126922F001024FF034
:101DB000E0231A6100229A6170470146144A128892
:101DC0004A434FF0E0235A6100229A611A46126991
:101DD00042F001021A6100BF4FF0E022106900F0EA
:101DE00001021AB100F48032002AF5D04FF0E0224F
:101DF000126922F001024FF0E0231A6100229A6179
:101E0000704700000000002000127A003C0700200C
:101E10003E070020014600BF704700BF404A1288BD
:101E200002F04002002AF9D0C2B23D4B1B1D1A80BD
:101E3000704710B586B00446012144F20400FFF754
:101E400017FD4FF40070ADF8140003208DF8160054
:101E500018208DF8170005A93248FFF74DFA4FF406
:101E60008060ADF8140004208DF8170005A92D48F6
:101E7000FFF742FA25208DF8000003208DF80100BD
:101E80008DF8020001208DF803006846FFF76BF91A
:101E900001940020ADF80800ADF80A00ADF80C0080
:101EA000ADF810000C20ADF80E0001A91C48FFF79A
:101EB00086FD012240F225511948FFF718FE012145
:101EC0001748FFF708FE06B010BD70B504460D4672
:101ED0000CE014F8010B1249091D088000BF1048DE
:101EE000008800F040000028F9D06D1E20780D28F1
:101EF00002D020780028ECD139210948FFF758FE9C
:101F000070BD10B540F225510548FFF7D5FE30B140
:101F10000348FFF751FEC4B22046FEF7D9FC10BDBE
:101F20000038014000080140704770477047704713
:101F3000704710B500F008F8006810BD10B50446F1
:101F400000F002F8046010BD00487047101800202F
:101F500000487047101800207546FFF7F9FFAE469D
:101F600005006946534620F00700854618B020B5A5
:101F7000FEF778FABDE820404FF000064FF000076A
:101F80004FF000084FF0000B21F00701AC46ACE821
:101F9000C009ACE8C009ACE8C009ACE8C0098D468E
:101FA00070470446AFF300802046FEF728F9490049
:101FB00050EAC12018BF04204A0D18BF40F00100AC
:101FC00040F2FF72B2EB515F08BF40F002000128FF
:101FD00008BF052070472DE9F0414F1E00EBC701F7
:101FE0000446D1E9000115461E4637F006020DD021
:101FF0002A46334601F03EF87F1E04EBC703D3E9BF
:10200000002300F05FFD37F00602F1D1022F25D04A
:10201000042F13D0062F18BFBDE8F0812A4633469F
:1020200001F028F8D4E90A2300F04CFD2A46334693
:1020300001F020F8D4E9082300F044FD2A46334695
:1020400001F018F8D4E9062300F03CFD2A46334697
:1020500001F010F8D4E9042300F034FD2A46334699
:1020600001F008F8D4E9022300F02CFD2A4633469B
:1020700001F000F8D4E90023BDE8F04100F022BDF2
:10208000002213461046014900F0D8BD0000F03F81
:1020900000F018BD002213461046114600F0CEBDD8
:1020A00040F2013200204FF0E04101F025BB00007A
:1020B000024A0020110701F01FBB000001FDFFFFD5
:1020C0002DE9F04D16460F4694B01C4621F0004114
:1020D00023F00042002814BF4FF0010C4FF0000C19
:1020E0000CEB470CFE4B0CEB03054FEA630C65450C
:1020F0002BD3350018BF012505EB44051D44F94BD2
:102100009D4222D3F84B52EA060C02D09F4205D1E1
:1021100048B914B000201946BDE8F08D002808BF6A
:102120004FF0000C01D04FF0010C0CEB470313F5FE
:10213000001F0AD8002E14BF4FF0010C4FF0000C06
:102140000CEB440313F5001F07D914B032462346A5
:102150003946BDE8F04DFFF79BBFDFF890834FF0A5
:10216000000A002FB8BF424523DAE14B9A42A8BFCC
:102170004FF0020A1DDADC4B93421ADCDD4B03EB15
:102180002253142B08DDC3F1340C26FA0CF303FAA6
:102190000CFCB4450DD108E05EB9C3F1140C22FA71
:1021A0000CF303FA0CFC944503D103F00103C3F1D3
:1021B000020A51EA00031BD1002C19DA002F18BFC4
:1021C000BAF1020F02D0BAF1010F07D00220FFF7D7
:1021D000B5FE14B0BDE8F04DFFF752BF0220FFF787
:1021E000ADFEFFF74DFF14B081F00041BDE8F08D6A
:1021F000330070D1424525D107F1804212F580129B
:1022000001BF00280020B84914B008BFBDE8F08D18
:10221000B548884207DC002CA1BF1846214614B0FF
:10222000BDE8F08D07E0002CBFBF184684F00041E8
:1022300014B0BDE8F08DB0497944D1E9000114B083
:10224000BDE8F08DDFF8A0C262452AD1002C24DA67
:1022500039B1414517D1002804BF002002461CD1E6
:1022600006E040B10220FFF769FEFFF719FF0A46BA
:10227000394600F0D7BA9D4A394614B0002062F3BF
:102280001E01BDE8F08D08DA14B03B46BDE8F04D04
:1022900002460020614600F0D1BC14B03946BDE8CA
:1022A000F08D414517DAB4F1804F0CD0A4F1005302
:1022B000B3F1FF530FD13B1E0DDB14B01946BDE83F
:1022C000F04D00F0D9BB3B4614B00246BDE8F04DDE
:1022D000194600F0CFBE050027F000433AD1E1B126
:1022E000414537D1002F06DD002CA1BF002041461B
:1022F00014B0BDE8F08D002F01DD002C1FDB002F96
:1023000016DA002C14DBBAF1010F4FF0000014BFF5
:1023100076497A4914B0BDE8F08DBAF1020F18BFC2
:10232000002F0CD0BAF1010F09D1002F07DA0BE012
:10233000002FB8BF002C0DDABAF1010F04D0002035
:1023400014B00146BDE8F08D14B000204FF00041FC
:10235000BDE8F08D4FF0010808EBE77CCDF814C024
:102360005CEA0A0C0DD0DFF898C162457EDDDFF82B
:1023700094C1654B624512DD8B420ADB002C18DBF1
:1023800023E00120FFF7DAFD14B0BDE8F04DFFF7C0
:1023900081BE554A8A4202DC002C0ADC15E09942D3
:1023A00002DA002C11DA04E04F4B994219DD002CBF
:1023B0000BDD0220FFF7C2FDFFF772FE4B4A14B09F
:1023C00061F31E021146BDE8F08D0220FFF7B6FD55
:1023D000FFF76EFE444A14B061F31E021146BDE8D9
:1023E000F08D0022394601F06BF807460D466FF07C
:1023F000010201F081F94FF05532444B00F06EFFBD
:102400003A462B4600F036FE0022414B00F066FFB4
:1024100080468B463A462B461046194600F02AFE67
:1024200042465B4600F026FE88460E904FF0C042C2
:10243000384B3846294600F01DFE83460091364A47
:10244000344B41460E9800F015FE80460191334A08
:10245000334B3846294600F00DFE4246019B01F001
:102460002FF80D4602460B460C9000E011E058464E
:10247000009900F027FB002788465A463846009B03
:1024800001F01EF82B460C9A00F028FF024600F0DF
:1024900079B90020B1F5801F07DA352228461946A0
:1024A00001F02AF905466FF0340000EB2150A0F24C
:1024B000FF300190C1F3130040F07F6141F04051C3
:1024C000029118498842D8BF4FF0000B35DD1649FC
:1024D0008142C8BF4FF0010B2FDC4FF0000B25E00D
:1024E000FFFF1F00FFFF0F000000F03F0000F07F24
:1024F0000000404301FCFFFFC41B00000000F0FF90
:102500000000E0410000F043FFFFEF3F5555D53F8D
:102510000000E03F4715F73FFE822B6544DF5DF882
:102520000BAE543E8E9803007AB60B000198401C07
:1025300001900298A0F580100290FF48029978441B
:1025400000EBCB000991D0E9002328460B931292AF
:1025500000F0B6FF00910A9028460B9B129A099949
:1025600000F0B0FA02460B460020F44900F066FB8A
:10257000CDE90C010B46024600990A9800F07AFD5D
:102580000690EF488846002778440299006810902A
:102590004FF0005040EA610000EB8B4000F5002155
:1025A00002910B9B129A109800F08AFF2A46099B11
:1025B00000F094FE3A46434600F05CFD089112900C
:1025C00038464146029B109A00F054FD009B0A9A3F
:1025D00000F084FE089B129A00F072FFDDE90C23E4
:1025E00000F048FD0B91069A12904346104619469A
:1025F00000F040FD05460246D2480B460A910621EE
:102600007844FFF7E8FC0A9B2A460891029010469E
:10261000194600F02FFD089B029A00F02BFD05469D
:102620000991434638461946069A00F04BFA0B9B2F
:10263000129A00F01FFD2A46099B00F043FACDE9EB
:1026400008013A4643461046194600F013FD0A9128
:102650000022BD4B009000F035FADDE9082300F0C0
:1026600031FA0D463A46B84B384600F029FF0A9B2E
:10267000009A00F025FFDDE9082300F02FFECDE9E8
:1026800008013A462B461046414600F0F3FC009103
:102690000A90DDE908014346069A00F0EBFC06903B
:1026A00088462B463A460B99129800F0E3FC4346C5
:1026B000069A00F007FA80460B4602460D910099F3
:1026C0000A9800F0FFF900200F460546009B0A9A81
:1026D00000F0F6FE42460D9B00F000FE88460E908C
:1026E0004FF06042994B2846394600F0C3FC0291F6
:1026F0000090974A954B41460E9800F0BBFC8046EF
:102700000391944A944B2846394600F0B3FC424664
:10271000039B00F0D7F9914A7A4402EBCB03D3E94B
:10272000002300F0CFF905460791019800F03BFC2B
:102730000C9003912A46079B0299009800F0C2F979
:10274000874A7A4402EBCB03D3E9002393460193F3
:1027500000F0B8F9039B0C9A00F0B4F90027884602
:102760003846039B0C9A00F0ABFE5A46019B00F0E2
:10277000A7FE029B009A00F0A3FE2A46079B00F0EA
:10278000ADFD02460020069005986C4DAAF10103AC
:10279000184301D1734D069000200B46049030463B
:1027A000214600F067FC82468B4623463046194698
:1027B000049A00F085FE3A46434600F05BFC524620
:1027C0005B4600F07FF906468A463A464346214674
:1027D000049800F04FFC04460F463246534600F082
:1027E00071F9614A8B46914221DBABEB020353EA5C
:1027F000000210D122463B4600F062FE8046039163
:102800005A4A5B4B3046514600F05CF94246039B06
:1028100000F02EFD27D20220FFF790FBFFF740FCCF
:102820000A46294614B062F31E01BDE8F08D514BF3
:102830002BF000429A4216D34F4A0BEB020353EAA5
:10284000000208D122463B4600F03AFE324653468B
:1028500000F00EFD07D80220FFF770FBFFF728FC01
:102860000A462946DEE72BF000404449444A01EB82
:1028700020514FF00008824223DA481C4FF48011A7
:1028800021FA00F058443F4AC0F30A517A443E4BC3
:10289000A1F2FF31CB4020EA0303C0F3130040F460
:1028A000801CC1F1140012682CFA00F8BBF1000F73
:1028B000B8BFC8F100082046394600F001FE0446C2
:1028C0000F4622463B463046514600F0FBF84FF09B
:1028D000000B5A462D4B5846039100F0CBFB00915C
:1028E0000A902B4A2B4B5846039900F0C3FB0491E6
:1028F000029022463B465846039900F0E1FD3246DD
:10290000534600F0EBFC244A244B00F0B3FB049B3D
:10291000029A00F0D7F807468A46009B0A9A00F010
:10292000D1F804460E46009B0A9A00F0C9FD3A46CB
:10293000534600F0D3FC33E0361800000000F03FAF
:1029400074180000A41700000000084009C7EE3FFB
:10295000FD033ADCF5015B14E02F3EBE7C1600005F
:10296000421600000000F0BF00009040FE822B6580
:102970004715973C00CC904000346F3F01FCFFFFAF
:102980000000E03F70150000FFFF0F00432EE63F00
:10299000396CA80C615C20BEEF39FAFE422EE63F8E
:1029A0000746224633460F911046194600F062FB57
:1029B000834602462E488A460B4605217844FFF797
:1029C0000AFB5A46534600F055FB2246334600F0B8
:1029D00085FC82468B463A46204631460F9B00F0E6
:1029E00049FB3A460F9B00F06DF80F460A90002213
:1029F0004FF080435046594600F062FD039100902D
:102A000052465B462046314600F034FB039B009A59
:102A100000F014F93B460A9A00F052FD2246334674
:102A200000F04EFD0022134B00F058FC0E46044609
:102A300001EB08510815002810DC424620463146BB
:102A400000F05AFEFFF7B3FA042808BFFFF730FB87
:102A500042462046314600F04FFE044606980B469B
:102A600014B022462946BDE8F04D00F003BB00003B
:102A7000181400000000F03F2DE9F04106460F4613
:102A800000F038FC04000D4618BF0120284320F058
:102A90000040C0F17F6000F1E040C00F0ED0301C5C
:102AA00018BF0120384320F00040C0F17F6000F1E2
:102AB000E040C00F04BF0120FFF740FA204629463E
:102AC000BDE8F08110B591EA030F48BF83F00043E1
:102AD00000F1FE84841A71EB030C05D2121943EB4A
:102AE0000C03001B61EB0C01DFF824E14FEA1154E9
:102AF000A4EB135C1EEA430F18BF9EEA445F73D039
:102B000023EA0E03DCF1200E21EA045143F4801382
:102B100032D322FA0CFE10EB0E0023FA0CFE41EB2E
:102B20000E01CCF1200E03FA0EFE10EB0E0051F157
:102B30000001B1F5801FCCF1200E32D201EB04511F
:102B400012FA0EF2BDE8104058BF7047401C38BF63
:102B50005FEA420218BF7047002814BF20F001004E
:102B600041F100014FEA410313F5001F38BF7047E0
:102B7000A1F1C04100F076BB012A43EB0302ACF1A6
:102B8000200CDCF11F0E32BF4FF0000E23FA0CF3C5
:102B900010EB030041EB0451B4EB115FD0D0A1EB7B
:102BA000045101F5801149085FEA300001EB04513E
:102BB0000ED350F1000038BF12FA0EFE08D1BDE866
:102BC0001040C9E7401C38BF5FEA4202CAD1C3E7E0
:102BD000BDE810404FEA410313F5001F38BF7047AE
:102BE000A1F1C04100F03EBB9EEA445F08D011EA6B
:102BF0005E0FBDE8104004BF01F0004100207047A7
:102C0000BDE8104070B500F0DFFA00BF64FBBE3EC7
:102C10000000E0FF02494FF0000000F03BBD00BFA4
:102C20000000F87F491058BFC1F140415B1058BF08
:102C3000C3F140438B42EFF3008070472DE9C04160
:102C400030B4DFF8A0C23CEA111418BF3CEA1314F8
:102C500000F0EC8081EA03051CEA111444EAD57403
:102C600018BF1CEA131500F0C780A4EB05044FF051
:102C7000004545EAC12145EAC32341EA505143EAF0
:102C8000525304F17F74994204F500344FEAC02096
:102C90004FEAC22208BF904200F09C804FEA1365C1
:102CA0000FF24016765D4FEA134506FB05F7C7F1B4
:102CB000807706FB07F74FEAD737A7FB0368764212
:102CC000C8F58038A7FB06CE38BFA8F1010807FB7E
:102CD00008E64FF0000EA6FB028CE6FB03CEDCF10B
:102CE000000CCEF1004E38BFAEF1010EA6FB0C5821
:102CF0004FF000074FF00005E6FB0E87A1FB08C66A
:102D0000A0FB07CE16EB0E0645F10005E1FB0765BB
:102D100015F1E04E7EBFA4F580345FEA46066D41B2
:102D200016F1800745F100054FEA17274FEA0666BE
:102D300047EA0567A6F1DE46B6F1805F4FEA152542
:102D40001FD9384624F0010C05EBC471BCF1FE6FAD
:102D500001EB0C1102D8F0BCBDE8008124425CBF3D
:102D600001F5801E9EEAC47F02D4F0BCBDE800815C
:102D7000244238D4F0BCA1F1C041BDE8004100F0CC
:102D800071BA4FEAD22242EA43524FEAD323A7FB59
:102D900002864FEAD02040EA415007FB03661EEA54
:102DA0000E0F4FEAD12105FB026658BFA6EB005675
:102DB000B6EB00564FEA520E4EEAC37E18EB0E0EEB
:102DC00056EB530EBDD518EB02085E417F1C55F142
:102DD0000005B6E74FF480154FF000074FF00006EE
:102DE0004FF00008ADE7F0BC4FF0000001F1C0412A
:102DF00001F00041BDE8008111EA0C1F0CEA131537
:102E000000D00CE013EA0C1F00F025804FF000000A
:102E1000F0BC81EA030101F00041BDE80081F0BC93
:102E2000BDE8004181EA030100F01CBAF0BCBDE836
:102E3000004170B500F0C8F9097EFC3E00F007B80B
:102E400081EA03014FF0000001F00041704781EA80
:102E5000030100F007BAF0BCBDE800414FF00000EC
:102E600021497047FFFDFBF9F7F5F4F2F0EEEDEBC9
:102E7000E9E8E6E4E3E1E0DEDDDBDAD8D7D5D4D378
:102E8000D1D0CFCDCCCBCAC8C7C6C5C4C2C1C0BFC4
:102E9000BEBDBCBBBAB9B8B7B6B5B4B3B2B1B0AFCA
:102EA000AEADACABAAA9A8A8A7A6A5A4A3A3A2A1AE
:102EB000A09F9F9E9D9C9C9B9A9999989797969569
:102EC00095949393929191908F8F8E8E8D8C8C8B05
:102ED0008B8A89898888878786858584848383828D
:102EE000828181800000FF070000F87F4FEA4103E4
:102EF0004FEA5353A3F58063D3F11E03C8BFD3F148
:102F0000210C0CDD4FF0004242EAC12242EA50524D
:102F100032FA03FC8CEAE17CACEBE1707047102BD9
:102F2000C4BF0020704703F5787CBCF1FF3F04D09C
:102F30006FF0004282EA2100704770B500F044F95A
:102F40004992248000207047F2E700004FEA1153B5
:102F5000A3F58063D3F11E03A8BFD3F1200C08DBD7
:102F60004FF0004242EAC12252EA505232FA03F0D4
:102F7000704709420BD4102BC4BF0020704703F5E3
:102F8000787CBCF1FF3F05D04FF0FF3070474FF029
:102F90000000704770B500F017F900BF4992248017
:102FA00000207047F0E710F0004248BF4042B0FAFE
:102FB00080F310FA03F10AD0C3F11D0303F5806317
:102FC0004FEA415002EB035202EBD12170474FF020
:102FD00000007047B0FA80F310FA03F10AD0C3F191
:102FE0001D0303F580634FEA41504FEA035202EBA1
:102FF000D12170474FF000007047000051EA030CE8
:1030000017D41CF5801F58BFBCF5801F00F1068047
:10301000994218BF704708BF9042704707D711F513
:10302000801F58BF13F5801F19D4994270478942F9
:1030300070471CF5801F08D5BCF5801FF7D58B4263
:1030400018BF704708BF824270474FF4001C1CEB4A
:10305000410F38BF1CEB430F01D28B42704770B554
:1030600000F0B2F8922449004FF000514FF0805325
:10307000FFF7D8BDDFF848C170B51CEA111E1EBFAE
:103080001CEA13159EEA0C0F95EA0C0F00F06F80F6
:1030900081EA030423EA4C134EEAD47E21EA4C1160
:1030A00041F4801143F48013AE44A1FB024CA0FB19
:1030B0000365AEF17F7E361955EB0C05A1FB034C81
:1030C0004CF10003A0FB021C16EB0C06654153F10A
:1030D0000003094218BF46F0010613F4007F0BD12C
:1030E0004FEA03314FEA0530340341EA155140EA13
:1030F00016506FF003020AE04FEAC3214FEAC520E1
:10310000F40241EA555140EA56506FF0020202EBD8
:103110002E4201EB025585EACE710AD05FEA440CDB
:1031200018BF24F0004450F1000041F1000120EAF2
:10313000D47040F2FE7C624500D270BDA84214BF3C
:103140004FF080444FF04044002E08BF0024BEF1F1
:10315000806FA8BFA1F1C041BDE8704080F28280BD
:103160004FF0000001F1C04101F0004170479EEABC
:103170000C0F0CEA131518BF95EA0C0F06D04FF090
:10318000000081EA030E0EF0004170BD00F01CF853
:103190008900013E00F007B800F009B84FEA430C7F
:1031A0005FEA5C5C08D081EA030100F05BB84FEA9B
:1031B000410C5FEA5C5CF6D14FF0000001497047BA
:1031C0000000FF070000F87F0EF1020E2EF0030E44
:1031D0005EF8046B364205D4012A43EB030515F56E
:1031E000001F12D8012841EB010C1CF5001F0CD860
:1031F0000ED14FEAD17C15F5001F0CEB4C0C0CF1F5
:10320000020C08BF4CEBD37C04E04FF0080C01E04B
:103210004FEAD37C0CEB4C0526FA05F606F00706C0
:10322000B6F1040C06D20EEB860CBDE870404CF0F3
:10323000010C6047DFE80CF0090B02024FF000417F
:103240004FF00000A1F5002170BD1946104601287D
:1032500051EB010418BFD4F5001484BF002001F025
:10326000004170BD0808A0F500114FEA3101704718
:1032700053EA010C17D41CF5801F58BFBCF5801F02
:1032800000F106808B4218BF704708BF824270472A
:1032900007D713F5801F58BF11F5801F19D48B4233
:1032A00070479B4270471CF5801F08D5BCF5801FF6
:1032B000F7D5994218BF704708BF904270474FF446
:1032C000001C1CEB430F38BF1CEB410F01D299428D
:1032D00070470FB40CBC03BCFFF7C1BE91EA030FEB
:1032E00010B581F000413FF5F5AB83F0004300F0ED
:1032F000EFB800002DE9F04101F5801CBCF5001F7E
:10330000C0F2C3804FEA115C21EA0C510CF1FD0CB4
:1033100041F480115FEA5C0C0CF5C07C01D34000E5
:1033200049413DA4890241EA905187028E0E0A0C60
:10333000A45D04FB04F602FB06F6C6F14046A4FBBE
:103340000662F60D46EA422606FB06F4A4FB0123BC
:103350005242C3F1404338BF5B1EA6FB0242002429
:10336000E6FB0324D20B42EA4446A6FB0623A1FB5C
:1033700002E2A3FB07E4A4184FF0000252F100029E
:10338000E3FB01426442C2F1404E38BFAEF1010E90
:10339000A6FB04234FF00002E6FB0E32A2FB03461D
:1033A0004FF00004B61954F10004E2FB0264A1FBE3
:1033B00006E6A4FB07E816EB08064FF0000858F1F4
:1033C0000008E4FB01687642C8F1405838BFA8F114
:1033D0000108A2FB06E4A3FB08E52D194FF0000449
:1033E00054F10004E2FB0854A1FB05E6A7FB04E846
:1033F00018EB06084FF0000656F10006E1FB0486C4
:1034000018F1200556F10006A809A8F11B08B1091A
:1034100008F03F08B8F10A0F40EA86601CD901EBBA
:103420000C51BDE8F08100BFFCF5EEE8E2DDD8D339
:10343000CFCBC7C3C0BDB9B6B4B1AEACA9A7A5A325
:10344000A19F9D9B9A9896959392908F8D8C8B8936
:103450008887868584838281A0FB006800FB01F257
:1034600008EB4208B8EB872807D5341858EB01045D
:10347000D5D5401C51F10001D1E7341A78EB010495
:10348000CDD4401E71F10001C9E75FEA4C0C5FEA40
:103490009C5C0DD105D34FF0000001F00041BDE868
:1034A000F081BDE8F04170B5FFF78EFE6DDBFFBE29
:1034B000BDE8F0414FF00000004970470000F87F80
:1034C00010B591EA030F48BF83F000433FF502AB0C
:1034D000841A71EB030C07D212198CF0004C43EBE9
:1034E0000C03001B61EB0C01DFF8A4E14FEA11545F
:1034F000A4EB135C1EEA430F18BF9EEA445F00F082
:10350000B08023EA6E03524221EA0451C3EB6E03FA
:1035100038BF5B1EDCF1200E25D322FA0CFE10EB27
:103520000E0043FA0CFE41EB0E01CCF1200E03FA23
:103530000EFE10EB0E0051F10001CCF1200E29D44B
:1035400012FA0EF201EB0451BDE8104058BF70476B
:10355000401C1CBFB2F1004F704700280CBF491C33
:1035600020F00100704712EB020E43EB030218BF7C
:103570004FF0010E4EEA4202ACF1200CDCF11E0EBF
:1035800054D943FA0CFE10EB0E0051F1FF31CCF18F
:103590001E0ED5D50EF1010E12FA0EFE404141EB82
:1035A000010101EB445C5FEA5C5C10D910EBDE705A
:1035B00001EB045138BFBEF1004FBDE8104018BF09
:1035C000704700280CBF491C20F00100704730D222
:1035D0004FEAD42C11F5001124F400641BD0B1FA89
:1035E00081F20B3AA41AA41ED2F12003914030FAC2
:1035F00003F31943904001EBCC71002C01EB045113
:10360000BDE81040A8BF704701F1C0414FF0000075
:1036100001F000417047B0FA80F310FA03F100D1D5
:1036200010BDE41A173C4805C90AE4E701EB045150
:1036300010BD491001EB0451BDE810404FEA3000C5
:1036400002E04FF0000170474A0008BF0042F8D086
:10365000B2F5001F28BF704701F000414FF0000095
:1036600070479EEA445F07D011EA5E0FBDE8104044
:1036700004BF002100207047BDE8104070B5FFF77F
:10368000A3FD00BF40DFF63E83F0004110467047C7
:103690000000E0FF0CF00F03092B08BF082000F02A
:1036A00059800A2B0BD0082B18BF704708BF1CF09D
:1036B000400F0AD04FF000004FF0000170471CF09F
:1036C000400F18BF4FF0004070471CF0100F08D09B
:1036D00020F0704300F07F4242EAD3014FEA43708A
:1036E000704700F0604021F07F4242EA000201F0A2
:1036F0007F4040EA727070474FF0FF0C4CF4E06C72
:103700001CEA11531CBF9CEA030C9445C2BFDA4269
:1037100001EB02517047002B0DD0BCF1000F0FD010
:10372000002A01F00041A4BF41F0E04141F07F6177
:103730004FF00000704701F000414FF0000070476B
:1037400050EA01334FF09B0C18BF4CF0806C7FF4B3
:1037500061AA70471CF4801F11D01CF4E02F03D025
:103760006FEACC31490070474FF04050EFF30082D0
:1037700022F0704242EA000282F3008870474FF064
:103780000000704700000000000000000000000082
:1037900000000000000000000000F83300000000FE
:1037A00000000000000010000C00020010000C00DF
:1037B0000200000000004004C03F78044004C03F05
:1037C000780400000000701888208820FCFF082181
:1037D000301E0000F0000831F00C8003601E18213C
:1037E000001E0000001EF0210823882C70190027FD
:1037F00000210010000012000E0000000000000078
:1038000000000000000000000000E007181804207D
:10381000024000000000024004201818E0070000E9
:1038200000000000400240028001F00F80014002D1
:10383000400200000000000100010001E00F000153
:103840000001000100000090007000000000000076
:103850000000000000000001000100010001000163
:1038600000010000000000300030000000000000F7
:10387000000000000000006000180007C0003800D1
:10388000040000000000E00F1010082008201010B5
:10389000E00F00000000000010201020F83F002082
:1038A00000200000000070300828082408220821A9
:1038B000F03000000000301808200821082188227C
:1038C000701C000000000006800540243024F83FF2
:1038D000002400240000F81988208820882008117E
:1038E000080E00000000E00F1011882088209020B2
:1038F000001F0000000018000800083E8801680052
:10390000180000000000701C88220821082188226D
:10391000701C00000000F00108120822082210119B
:10392000E00F0000000000000000C030C0300000C8
:103930000000000000000000000080E00000000027
:103940000000000000000001800240042008101068
:1039500008200000000040024002400240024002F5
:1039600040020000000008201010200840048002DF
:10397000000100000000700048000830083788008F
:1039800070000000C0073018C8272828E82F10282A
:10399000E01700000020003CC0233802E0020027AE
:1039A000003800200820F83F8820882088207011E7
:1039B000000E0000C007301808200820082008105A
:1039C000380800000820F83F0820082008201010C0
:1039D000E00F00000820F83F88208820E823082016
:1039E000101800000820F83F88208800E80308002D
:1039F00010000000C0073018082008200822381ED8
:103A0000000200000820F83F082100010001082101
:103A1000F83F0820000008200820F83F0820082070
:103A20000000000000C0008008800880F87F0800C7
:103A3000080000000820F83F8820C0012826183818
:103A4000082000000820F83F082000200020002067
:103A5000003000000820F83FF801003EF801F83F70
:103A6000082000000820F83F3020C0000007081898
:103A7000F83F0800E00F1010082008200820101060
:103A8000E00F00000820F83F0821080108010801A4
:103A9000F0000000E00F101008280828083010502F
:103AA000E04F00000820F83F882088008803880C39
:103AB000703000200000703888200821082108227A
:103AC000381C0000180008000820F83F08200800F3
:103AD000180000000800F81F08200020002008201F
:103AE000F81F08000800780088070038000EC80199
:103AF000380008000800F803003EF801003EF80313
:103B00000800000008201830682C80038003682C0F
:103B10001830082008003800C820003FC8203800AE
:103B2000080000001020083808260821C820382086
:103B300008180000000000000000FE7F0240024064
:103B400002400000000004003800C00100060038F8
:103B500000C000000000024002400240FE7F000062
:103B60000000000000000000040002000200040049
:103B70000000000000800080008000800080008045
:103B8000008000800000020002000400000000002D
:103B90000000000000000019802480248012003FF3
:103BA000002000001000F03F001180208020001154
:103BB000000E00000000000E0011802080208020F8
:103BC000001100000000001F802080208020901045
:103BD000F03F00200000001F8024802480248024E7
:103BE00000170000000080208020E03F90209020FF
:103BF000200000000000006B8094809480948093EB
:103C0000806000001020F03F0021800080008020B4
:103C1000003F0020000080209820983F00200020D6
:103C200000000000000000C0008080809880987F25
:103C3000000000001020F03F0024000680298030A2
:103C400080200000000010201020F83F00200020FD
:103C5000000000008020803F80208000803F802086
:103C60008000003F8020803F002180008000802075
:103C7000003F00200000001F802080208020802046
:103C8000001F0000808080FF0091802080200011B4
:103C9000000E00000000000E001180208020009126
:103CA00080FF008080208020803F002180208000D5
:103CB00080010000000000338024802480248024C0
:103CC00080190000000080008000E01F802080201C
:103CD000001000008000801F0020002000208010C5
:103CE000803F002080008003800C0030800C800327
:103CF000800000008001800E0030800C80070038BA
:103D000080068001000080208031800E002E8031EE
:103D10008020000080008081808600780018800666
:103D200080018000000080218030802C8022802152
:103D30008030000000000000000000000001FC3E98
:103D4000024002400000000000000000FFFF0000F1
:103D50000000000002400240FC3E000100000000A4
:103D60000000000000000000000000000000000053
:103D70000000000000000000000000000000F03F14
:103D8000000000000000F83F0000000000000000FC
:103D90000000004003B8E23F000000000000000007
:103DA00006D0CF43EBFD4C3E033333333333E33F95
:103DB000FFAB6FDBB66DDB3F4D268F515555D53FC1
:103DC00001411DA96074D13F65DBC9934A86CD3F8F
:103DD000EF4E454A287ECA3F3E5555555555C53F7D
:103DE00093BDBE166CC166BF2CDE25AF6A56113F6F
:103DF000F16BD2C541BDBBBED0A4BE726937663E71
:103E0000000000000000000041542B43574A41507D
:103E10003D223131335F494E222C22313133696EDC
:103E200073696465220D0A0041542B434950535471
:103E30004152543D22544350222C223139322E31EA
:103E400036382E322E323232222C383030310D0AB2
:103E50000000000041542B43574D4F44453D310D68
:103E60000A00000041540D0A0000000041542B528A
:103E700053540D0A0000000070726573737572650B
:103E80003D00000074656D70657261747572653D0A
:103E900000000000B43E00080000002048070000B9
:103EA0006C010008A84300084807002028170000FC
:103EB000C80100081184A24A04100B010203040681
:103EC000070809643E1B0854041A6C041A08041AF3
:103ED0002804D00C41542B43495053454E443D1ABD
:103EE000781C1A840401125B303008101D3866CC2F
:103EF00060033033301C66CCFE0F303B301E66CC86
:103F00006603303F300F76DF06280FFC3FF003FEDC
:103F1000FFFE0FFC37F0FFFEFD1869085B3006302E
:103F20001908180B6603F87F300E66DC6007086816
:103F30000A1C66F8670E18303018081008DF3FFBBF
:103F40001DF83F302809DF3FF81DF81FB03F08215A
:103F5000390817058001B0101F2DD81D8C3F08218E
:103F60005A9C08271878B01F1F0C10081078B0DF73
:103F70001FCC301008E47B30C01FCC711AFC081134
:103F80001DECF91F7C88112EFCFD1F780F081CFF0B
:103F90001F7060111EFCBF1F787F0836DFB71F7CC3
:103FA000633DCFB31FEC0815B907E07B160C0CEC92
:103FB000BB1F1278161C0EFCBE03480FB0051C0771
:103FC0007CBE1FF4F087FFFF3CBC081B0CB8081137
:103FD00015CC030C301008FEF007CC03980312F444
:103FE000100804CE0FDC830CF4181F07FF1FEEBF70
:103FF00006F4F083FF1FFFBF1FD8F0837FDB3B9DDC
:104000001FFCF08776C37A9D06301A360818110C0B
:10401000DAF005FEFF4ABD1FEEF007DEFF7AFF2053
:10402000180C07DE7F7FEF1F98F0070E03081113AF
:10403000F00715037AF91F2FB00630304AB908256A
:1040400037307A1D2FB006B7337A0D202FF33302A5
:104050000D0F180821231F1810087B33F8F71FD8FD
:104060000F1B3B33E81810D8EF0F3B3338FC1F58B9
:10407000E50FF3FF3CFE081A0D082DFC1FFCE708B6
:104080002A7E083C33331C18153333FC03E9081926
:10409000204D37337C02083119183B073008420F96
:1040A0001A1E60312A1870214B8099082B9099882C
:1040B00019A426D91FC0181C17F0D91EC01C1C2813
:1040C0000D06E0F90EFCFF0F0686817F1E0814879F
:1040D000813F1008C00E0C06C7C17F2008C0CE0C5F
:1040E000F6FFF1F917DF0EFEFFF1D91A7808481133
:1040F0007FB0D901F8DB079E01809901D8DF03CE9C
:10410000081401C60110089801D8FF0FFF7F12069E
:1041100029081DFF010703201009FFFF818703D82D
:10412000DB071008C0E1C30378DB061DC0F1F00314
:10413000481115E071FC0113DF0C1FFC119C01E01C
:10414000C30811358C01E003280D309001E0E30F26
:10415000FC7FF0F001F80813E0F11908180D8C311C
:10416000C0E303F8E31F8C318087083E0FFC3F0358
:10417000070814BF030614F8631B23E0331908195A
:10418000A8180C9004F8E11FFE7FF0D006780838DC
:104190000E0F30F006F8611B660CF3F00778081577
:1041A000F807F86119081AD818111008668CF3700E
:1041B00007E0615DFEFF0330081310062760F09FE3
:1041C000E1FFD91008703098E1FFFD071008383082
:1041D000F8C707BC0310191E309831F7F903800F98
:1041E000F09FF3F7F907FC0730F8E377FC05FC19BB
:1041F000201B67F810380EF09FE7E6F807800F30B5
:10420000987FC6F9301B398ED51008383098013E9A
:10421000FB07101370F09F013C4804FE673098F9CB
:10422000FF4B04FEE77F2AF80833877F19185908E7
:10423000347E8717031DF80763C03F63F0FF1478CF
:10424000C0011AFF012D1F8003C008120F1303E0E5
:10425000140683012C0F0660081D801F0630084DD0
:10426000FFFF310C083A300812011A6008114A8029
:1042700010290844310C60193052E06B0F06506968
:10428000607970411AE0805A0690720969085AE60E
:10429000C363F81F2962416304200B2402400869AC
:1042A00030031D1E10100910046004027E8C0112E0
:1042B0004048087EFE429242927E0413FE421A7EDD
:1042C00014211240181630FC8F24802484244CFCC6
:1042D00055252526252425FC55244C128480048050
:1042E0005CC030C0A77950180A44FE489250927FB3
:1042F000924002167F9250FE480A32445021580DD7
:10430000E00F1010082008201010E00F6416201095
:1043100020F83F1A200231380C7030082808240891
:10432000220821F0341B30182E5008210821882241
:10433000701C180806800540243024321A2402110B
:104340002DF8198820025D0811080E602A1110133B
:104350009020421F121812081E083E8801680A3970
:10436000601B1C885C89501DF00108126E2C221005
:1043700011901A088A293E1BE823A21931591011FD
:10438000178803880C703019B8C91069CE69D0E954
:104390002061032CF8332D0102030404C009060731
:0843A0000809020406080000F0
:0400000508000131BD
:00000001FF
